:020000040800F2
:10000000C80600209D010008A5010008A7010008FE
:10001000A9010008AB010008AD01000800000000C4
:10002000000000000000000000000000AF01000818
:10003000B101000800000000B3010008B50100088C
:10004000B7010008B7010008B7010008B7010008B0
:10005000B7010008B7010008B7010008B7010008A0
:10006000B7010008B7010008B7010008B701000890
:10007000B7010008B7010008B7010008B701000880
:10008000B7010008B7010008B7010008B701000870
:10009000B7010008B7010008B7010008B701000860
:1000A000B7010008B7010008B7010008B701000850
:1000B000B7010008B7010008B7010008B701000840
:1000C000B7010008B7010008B7010008B701000830
:1000D000B7010008B7010008B7010008B701000820
:1000E000B7010008B7010008B7010008B701000810
:1000F000B7010008B7010008B7010008B701000800
:10010000B7010008B7010008B7010008B7010008EF
:10011000B7010008B7010008B7010008B7010008DF
:10012000B7010008B7010008B7010008B7010008CF
:10013000B7010008B7010008B7010008B7010008BF
:10014000B7010008B7010008B7010008B7010008AF
:10015000B7010008B7010008B7010008B70100089F
:10016000B7010008B7010008B7010008B70100088F
:10017000B7010008B7010008B7010008000000003F
:10018000B7010008B7010008DFF80CD000F006FB4B
:100190000048004765240008C8060020064880473C
:1001A00006480047FEE7FEE7FEE7FEE7FEE7FEE75C
:1001B000FEE7FEE7FEE7FEE7C10800088901000848
:1001C0002DE9FE4F804681EA0300C00F0C460090E7
:1001D00021F0004123F00045B8EB0200A94105D20F
:1001E0004046214690461C460B46024623F00040FE
:1001F000104347D0270DC7F30A00C3F30A510290FA
:10020000401A019040286BDAC3F3130040F4801BBE
:100210000098924620B10023D2EB030A63EB0B0B4C
:1002200001985946C0F14002504600F0D0F9064608
:100230000D4650465946019A00F0E8F910EB0800C7
:100240006141002487EA115284EAE7731A4340D0DF
:10025000009A62B3019A012A4FEA075215DC001B8B
:1002600061EB02014FF0004202EA0752CDE9004281
:10027000001C41F5801132462B4600F0E8F903B02E
:10028000BDE8F08F40462146F9E7001B61EB020113
:10029000001C41F5801300185B412018A2F50017DF
:1002A00047EB030140EAD570B6196D4111E06D08C6
:1002B0004FEA360645EAC0754FEA0752001B61EB6C
:1002C0000201001C41F5801149084FEA3000001975
:1002D000514132462B4603B0BDE8F04F00F0A8B9BB
:1002E0000098012240000023D0EB020263EBE07390
:1002F000009821464FEAE074B8EB000061EB04017E
:10030000E9E783F000435BE781F0004158E72DE91E
:10031000FE4F81EA030404F0004421F00041009400
:100320004FF0000B23F0004350EA01045ED052EA84
:1003300003045BD0C3F30A54C1F30A552C44A4F25E
:10034000F3340194A0FB0254C1F3130141F4801172
:10035000C3F3130343F4801301FB024400FB034E79
:10036000840A970A44EA815447EA8357A4FB076842
:1003700002958D0A05FB07854FEA932C04FB0C546C
:100380002705029D4FEA065847EA1637B5EB0805E0
:100390006EEB070C870E920E47EA811742EA831232
:1003A000A7FB0201B6EB0B0164EB00042B0D43EA43
:1003B0000C335E1844EB1C50DA465146E7FB020151
:1003C000C5F313044FEA0B3343EA14534FEA0432E4
:1003D000019C43EA0603A4F10C040294009CCDE9BD
:1003E00000B400F034F903B0BDE8F08F00200146FE
:1003F000F9E72DE9F04D81EA030404F0004B21F008
:10040000004514464FF0000A23F0004150EA05026F
:1004100020D054EA01021DD0C5F30A570246C5F3A5
:100420001303C1F31300C1F30A5640F4801543F4DB
:100430008013A7EB0608101BD64608F2FD3873EBB5
:10044000050002D308F1010801E092185B41B8F100
:10045000000F03DA00200146BDE8F08D00204FF4C4
:100460008011064684460EE0171B73EB050705D383
:10047000121B63EB050306434CEA010C49084FEAE3
:10048000300092185B4150EA0107EDD152EA0300B7
:1004900012D082EA040083EA0501084305D0101B4C
:1004A000AB4106D20122002306E000224FF00043B8
:1004B00002E06FF0010253101AEB06004CEB0851FA
:1004C00010EB0A0041EB0B01BDE8F04D00F0B0B8B5
:1004D00070B5C1F30A5201F000450024C1F31301C5
:1004E00040F2FF3341F480119A4201DA002070BDDE
:1004F00040F233439A42A2F2334203DC524200F00C
:1005000075F800E090402C43F1D0404270BD0000EF
:1005100030B5041E71F1000404DB4FF0004440428A
:1005200064EB0101141E73F1000405DB1C464FF05F
:100530000043524263EB0403994208BF904230BD2E
:1005400030B50B46014600202022012409E021FAA3
:1005500002F59D4205D303FA02F5491B04FA02F5A0
:100560002844151EA2F10102F1DC30BD2DE9F05F37
:100570000546002092469B46884606468146402412
:100580001BE0284641464746224600F02FF85346D6
:100590005A46C01A914110D311461846224600F01F
:1005A00016F82D1A67EB01084F462246012000215C
:1005B00000F00DF817EB00094E41201EA4F10104D4
:1005C000DFDC484631462A464346BDE8F09F202AF4
:1005D00004DB203A00FA02F1002070479140C2F19A
:1005E000200320FA03F3194390407047202A04DBCC
:1005F000203A21FA02F00021704721FA02F3D0409C
:10060000C2F120029140084319467047202A06DBB8
:10061000CB17203A41FA02F043EAE07306E041FAD0
:1006200002F3D040C2F120029140084319467047BE
:1006300010B5141E73F1000408DA401C41F10001EA
:1006400092185B411A4301D120F0010010BD2DE941
:10065000F04D92469B4611B1B1FA81F202E0B0FA38
:1006600080F220329046FFF7B2FF04460F4640EA80
:100670000A0041EA0B0153465A46084313D011467B
:1006800053EA010019D0C8F140025046FFF7AEFF0F
:1006900005460E46504659464246FFF798FF084326
:1006A00005D0012004E020463946BDE8F08D002049
:1006B000054346EAE0762C4337430A986305E40A8B
:1006C000A0EB08000022FD0A44EA47540A3002D594
:1006D00000200146E9E7010510196941DDE90845F7
:1006E00000196941BDE8F04DA2E770B521F0004363
:1006F00003430CD0C1F30A550024D5EB040564EB89
:100700000403D617AD1AB34102DB0020014670BDC9
:10071000201841EB025170BD0EB5C10F80EAE070A8
:100720000844CA07002140F233438DE80E000A4610
:100730000B46FFF78CFF03B000BDC1F30A52C1F3B3
:10074000130140F2FF3341F480119A4202DA002093
:100750000146704740F233439A42A2F2334202DC30
:100760005242FFF743BFFFF732BF000030B5041E0F
:1007700071F1000404DB4FF00044404264EB0101DE
:10078000141E73F1000405DB1C464FF00043524277
:1007900063EB04038B4208BF824230BD064C074D19
:1007A00006E0E06840F0010394E807009847103441
:1007B000AC42F6D3FFF7ECFCA02A0008C02A0008E0
:1007C0002DE9F04D00231A461B1A8A4103DB002055
:1007D0000146BDE8F08DC1F30A52C1F3130141F4A3
:1007E00080154FF0000BD10702D100186D41521E49
:1007F0000027044640F2FF11384601EB620A3E46EC
:100800008046024600204FF48011FFF7EFFEC21928
:100810007141BB1846EB0100B4EB030C75EB000C07
:1008200004D3E41A65EB000517460E46241908F1B7
:1008300001006D4180463428E3DDF91946EB0600DE
:10084000091BA84103D24FF0FF32134601E00022FA
:1008500013461BEB070046EB0A51BDE8F04DFFF7CE
:10086000E7BE70B58D1810F8014B14F0030201D1EA
:1008700010F8012B231106D110F8013B03E010F80A
:10088000016B01F8016B521EF9D1ABB110F8012BCD
:1008900004F00C048A1A0C2C03D0A2EB84129B1CCB
:1008A00008E010F8014BA2EB0422F8E712F8014B24
:1008B00001F8014B5B1EF9D5A942D4D3002070BDCD
:1008C0001448006840F4700012490860124800683B
:1008D00040F001001049086000200F49083108600D
:1008E0000D4800680D4908400B4908600C48091D77
:1008F0000860081F006820F48020091F086000209D
:1009000005490C3108604FF00060024980390860E9
:100910007047000088ED00E000380240FFFFF6FE5F
:10092000103000240FB4054B10B503A9044A0298F7
:1009300001F08AF910BC5DF814FB00009123000857
:10094000BC02002003B401984100009850EAC12085
:1009500018BF04204A0D18BF40F0010040F2FF729A
:10096000B2EB515F08BF40F00200012808BF05202C
:1009700002B070470000000070B52DED020B2DEDA8
:100980000A8B82B00D98C40F20F00045AE48854216
:1009900048D3AE48854219D30C99C5F313000843D8
:1009A00009D09DED0C0B02B0BDEC0A8B02B0BDE886
:1009B000704001F03DB8002C14BF9FEDA50B9DEDDC
:1009C0000C0B02B0BDEC0A8B02B070BD9FEDA20B08
:1009D00053EC102B9DED0C0B51EC100BFFF798FD19
:1009E0000AD2022001F078F802B0BDEC0A8B02B006
:1009F000BDE8704001F040B89FED990B53EC102B0F
:100A00009DED0C0B51EC100BFFF7B0FE0AD202204B
:100A100001F062F802B0BDEC0A8B02B0BDE8704094
:100A200001F03AB890489FED92BBA8425CD2924840
:100A3000854219D29148784400EBC40090ED000B38
:100A400053EC102B9DED0C0B51EC100BFFF759FCE8
:100A500041EC1A0B8A48784400EBC40090ED009BEF
:100A6000C4F10100041B36E09FED870B53EC102B03
:100A70009DED0C0B51EC100BFFF749FC41EC100BFA
:100A80008348784400EBC40090ED001B51EC100B40
:100A900053EC112BFFF794FBFFF71AFD0446FFF709
:100AA0003BFE41EC180B9FED7C0B53EC102BFFF73A
:100AB0002EFC9DED0C1B53EC112BFFF725FC41EC9C
:100AC0001A0B9FED770B51EC180B53EC102BFFF723
:100AD0001EFC41EC190B51EC1A0B53EC192BFFF7D0
:100AE00010FCCDE90C011BE06F48854217D29FED49
:100AF000700B53EC102B9DED0C0B51EC100BFFF712
:100B00005FFB53EC1B2BFFF703FD08D29DED0C0B95
:100B100053EC1B2B51EC100BFFF752FB6EE0002443
:100B20009DED0C0B53EC102B51EC100BFFF7EFFB72
:100B300041EC180B60480521B0EE480AF0EE680A57
:100B4000784400F0E1FE53EC182B51EC100BFFF74A
:100B5000DEFB9DED0C1B53EC112BFFF7D5FB41EC9D
:100B6000180B9FED570B5CB353EC182B51EC100B8B
:100B7000FFF7C7FB9DED0C0B41EC1C0B53EC182B46
:100B800051EC100BFFF7C3FB53EC1C2BFFF731FCB0
:100B900053EC192BFFF7B8FB53EC1A2BFFF7B1FB03
:100BA00053EC1B2BFFF7B0FBCDE900016FF47F7016
:100BB000844226DB01EB045001909DED000B00E721
:100BC00053EC102B51EC180BFFF79BFB9DED0C0B1E
:100BD00041EC190B53EC182B51EC100BFFF797FB62
:100BE00053EC192BFFF705FC9DED0C1B53EC112B5F
:100BF000FFF787FB53EC1B2BFFF786FB41EC100B39
:100C0000DFE608464FF07A5101EB04519FED2E0BC1
:100C1000084453EC102B01909DED000B51EC100B90
:100C2000FFF775FB0D4645EC100B044651EC100B1D
:100C3000FFF788FE042808BF00F02EFF45EC104B9C
:100C4000BFE6000000000000422E86400000F07F5A
:100C50000000000000000000EF39FAFE422E86403E
:100C600051302DD5104987C0422ED63F00000000DC
:100C7000000000000000F03FB2A2F03F8E1F000015
:100C80007E1F000000000000FE822B654715F73F25
:100C9000321F0000000000000000E0FE422EE63F90
:100CA000763C7935EF39EA3D0000303E0000000027
:100CB0009C7500883CE4377EA41E00000000000004
:100CC0000000000000000040000000000000700173
:100CD0002DE9F04D2DED040B2DED0C8B96B0DDE9DB
:100CE0002350259CDDF888A025F0004624F000481C
:100CF000BAF1000F14BF0121002101EB4502FE49AA
:100D000053184A1093422AD3002814BF012300230A
:100D100003EB44030B44F9498B4220D358EA00010A
:100D20009FEDF78B6FD0DFF8E0B35D4503D1BAF1EB
:100D3000000F05D187E0BAF1000F08BF002100D0F5
:100D4000012101EB450111F5001F08D8002814BF4F
:100D50000121002101EB440111F5001F0BD99DED8C
:100D6000241B9DED220B16B0BDEC0C8B04B0BDE82E
:100D7000F04D00F067BE0027002DBCBFE349884559
:100D800021DAE3498845A8BF02271CDAC3451ADCEB
:100D9000E04901EB2851142908DDC1F1340220FAA1
:100DA00002F101FA02F282420DD108E058B9C1F114
:100DB000140228FA02F101FA02F2424503D101F0CD
:100DC0000101C1F1020756EA0A011DD1002C1BDA0C
:100DD000002D18BF022F01D0012F0AD0022000F0F1
:100DE0007BFE16B0BDEC0C8B04B0BDE8F04D00F0FE
:100DF00007BE022000F070FE00F002FE51EC100B66
:100E000081F0004183E01EE09FEDC39B9FEDC4ABEA
:100E1000002872D1BD4880452DD105F1804010F5E4
:100E2000801008BFBAF1000F0DD0B34515DC002CBF
:100E3000A1BF9DED240B16B0BDEC0C8B04B0A8BF78
:100E4000BDE8F08D12E0B0EE480AF0EE680A16B088
:100E5000BDEC0C8B04B0BDE8F08D002C06DA9DEDE6
:100E6000240B51EC100B81F0004150E0AE48784467
:100E700090ED000BEBE7D8454FD1002C4ADA2EB1AC
:100E800086423BD1BAF1000F44D126E0BAF1000FFF
:100E900013D0022000F020FE00F0EEFD8DED020BDD
:100EA0009DED220B8DED000B10EE900A039961F37E
:100EB0001E0003909DED020BC9E78DED029B9DED99
:100EC000220B19EE901A10EE900A8DED000B61F3D3
:100ED0001E0003909DED020BB9E78DED02AB9DED79
:100EE000220B1AEE901A10EE900A8DED000B61F3B2
:100EF0001E0003909DED020BA9E729E00ADA9DEDA3
:100F0000220B51EC180B53EC102BFFF772FA41EC4B
:100F1000100B9CE79DED220B99E7864218DAB4F19D
:100F2000804F0DD0A4F10050B0F1FF5010D1002D32
:100F30000EDB9DED220B51EC100B01F0C5FAE6E73C
:100F40009DED220B53EC102B51EC100B00F0AEBCBE
:100F50009DED220B51EC100B01F00DFABAF1000FD0
:100F6000CDE90C0134D19FED720BDEB1A6F1E0406A
:100F7000B0F17F602CD1002D01DD002C0DDA002DA9
:100F800001DD002C1FDB002D16DA002C14DB012FF5
:100F900008BF9FED690B3FF45AAFB0EE490AF0EE7F
:100FA000690A54E7022F18BF002D0CD0012F0AD177
:100FB000002DFFF64CAF06E0002DB8BF002C07DA7D
:100FC000012F3FF444AFB0EE4A0AF0EE6A0A3EE762
:100FD000012000EBE57A5AEA07000CD058480025BA
:100FE00080457CDD57495848884514DDB0420DDB0B
:100FF000002C19DB2BE0012000F06EFD16B0BDECDB
:101000000C8B04B0BDE8F04D00F026BDB34502DC0A
:10101000002C09DC1BE0864202DA002C17DA03E020
:101020005E4527DD002C12DD022000F055FD00F0AA
:1010300023FD10EE901A19EE900A8DED020B8DED46
:10104000009B61F31E0003909DED020BFFE6022062
:1010500000F042FD00F020FD10EE901A18EE900A0C
:101060008DED020B8DED008B61F31E0003909DED65
:10107000020BECE69DED220B53EC182B51EC100B00
:10108000FFF73FF99FED320BCDE90A0153EC102B2E
:101090009DED0A0B51EC100BFFF739F99FED2E1B5C
:1010A00053EC112BFFF730F99DED0A1B53EC112B7C
:1010B000FFF72DF99FED2A1B53EC112BFFF724F9B5
:1010C0009DED0A0B41EC190B53EC102B51EC100B5E
:1010D000FFF71DF953EC192BFFF719F900E07EE03B
:1010E0009FED210B41EC1A0B53EC102B9DED0A0BDD
:1010F00051EC100B3CE00000FFFF1F00FFFF0F0052
:10110000000000000000F03F0000F03F0000F07F12
:101110000000404301FCFFFF000000000000F07FE2
:101120000000000000000000261C0000000000007D
:101130000000000000000080000000000000F0FF40
:101140000000E0410000F043FFFFEF3F000000001F
:10115000000000000000D03F555555555555D53F6E
:10116000000000000000E03F000000604715F73F6E
:10117000FFF7CDF841EC190B9FEDFD0B51EC1A0B6D
:1011800053EC102BFFF7C3F841EC1A0B9FEDFA0B51
:1011900053EC102B9DED0A0B51EC100BFFF7B7F839
:1011A00053EC1A2BFFF7ADF841EC1A0B51EC190B6D
:1011B00053EC1A2BFFF704F80690CDE906519DED8C
:1011C000060B53EC192B51EC100BFFF79AF853EC6C
:1011D0001A2BFFF799F841EC100B00F09FB9002093
:1011E000B6F5801F0EDA9FEDE60B53EC102B9DED4C
:1011F0000C0B51EC100BFFF78AF8CDE90C016FF0E6
:1012000034000E4600EB2650A0F2FF38C6F3130060
:10121000DD4940F07F6646F040568842D8BF002442
:1012200009DDDA498142C8BF012404DC0024A6F5A7
:10123000801608F10108D648784400EBC4000D96EA
:1012400090ED00BB9DED0C0B53EC1B2B51EC100BE8
:10125000FFF757F89DED0C0B41EC1A0B53EC1B2BD1
:1012600051EC100BFEF7ACFF41EC100B51EC180BDE
:1012700053EC102BFFF7BDF841EC1C0B51EC1A0B93
:1012800053EC1C2BFFF743F841EC190BC1488DEDD3
:10129000109B7844109590ED000B4FF0005040EA01
:1012A000660000EB84408DED0A0B00F500200B90EA
:1012B0009DED0A0B53EC1B2B51EC100BFFF721F8A3
:1012C0009DED0C1B53EC112BFFF71EF841EC100B9E
:1012D00053EC102B9DED100B51EC100BFFF717F892
:1012E0009DED0A0B41EC1B0B53EC102B9DED100BED
:1012F00051EC100BFFF70BF853EC1A2BFFF704F827
:1013000053EC1B2BFEF7FDFF53EC1C2BFEF7FFFFEE
:1013100041EC1B0B53EC192B51EC190BFEF7F7FFAB
:1013200041EC1A0B9C480621B0EE4A0AF0EE6A0A1C
:10133000784400F0E9FAB0EE40CAF0EE60CA53EC2F
:101340001A2B51EC1A0BFEF7E2FF53EC1C2BFEF7A5
:10135000DEFF9DED100B41EC1A0B53EC192B51ECF9
:10136000100BFEF72DFF53EC1B2BFEF7D0FF53ECB9
:101370001A2BFEF725FF9DED100B41EC1A0B53ECD9
:10138000102B51EC100BFEF7C2FF41EC1C0B9FED34
:1013900084DB53EC1D2BFEF713FF53EC1A2BFEF7E7
:1013A0000FFF0A90CDE90A519DED0A0B53EC1D2B5E
:1013B00051EC100BFEF7A5FF53EC1C2BFEF7A1FF21
:1013C00053EC1A2BFEF7A0FF9DED0A0B41EC1C0B12
:1013D00053EC102B9DED100B51EC100BFEF797FF0B
:1013E00041EC1A0B53EC192B51EC1C0BFEF78FFF41
:1013F0009DED0A0B41EC190B53EC102B51EC1B0B20
:10140000FEF785FF53EC192BFEF7DAFE41EC190BC2
:1014100051EC1A0B53EC192BFEF7D2FE1090CDE9CC
:1014200010519DED100B53EC1A2B51EC100BFEF7E5
:1014300068FF53EC192BFEF767FF41EC190B9FED8A
:101440005A0B53EC102B9DED100B51EC100BFEF7CB
:101450005EFF41EC1A0B9FED560B51EC190B53EC50
:10146000102BFEF754FF41EC190B9FED530B53EC7F
:10147000102B9DED100B51EC100BFEF748FF53ECB9
:10148000192BFEF79DFE41EC100B4D48784400EB04
:10149000C40090ED001B51EC100B53EC112BFEF728
:1014A0008FFE41EC190B4046FFF736F9CDE90A01F2
:1014B00053EC192B51EC1A0BFEF782FE41EC100B8A
:1014C0004048784400EBC40090ED00BB51EC100B99
:1014D00053EC1B2BFEF774FE9DED0A1B53EC112BF6
:1014E000FEF76EFE0690CDE906519DED0A0B53EC1A
:1014F000102B9DED060B51EC100BFEF702FF53EC89
:101500001B2BFEF7FEFE53EC1A2BFEF7FAFE53ECF4
:10151000192BFEF7F9FE41EC100B00BF781EB0EE60
:1015200048AAF0EE68AA5AEA000008BF9FED268B91
:101530009DED241B53EC102B8DED001B00959DEDB4
:10154000240B51EC100BFEF7E2FE9DED000B41EC7D
:10155000190B53EC102B9DED240B51EC100BFEF7E7
:10156000D0FE9DED061B53EC112BFEF7D0FE2FE0B5
:10157000FE822B654715F73F44DF5DF80BAE543E06
:1015800000000000000040438E9803007AB60B0074
:10159000D4170000021800000C1700000000000023
:1015A0000000000000000840000000E009C7EE3F16
:1015B000FD033ADC09C7EE3FF5015B14E02F3EBEA8
:1015C000A01500005A150000000000000000F0BF48
:1015D00053EC192BFEF7F4FD9DED060B41EC190BB6
:1015E00053EC102B9DED000B51EC100BFEF78FFE12
:1015F000CDE910019DED100B51EC190B53EC102BA4
:10160000FEF7DEFDCDE902010C46AB498C422FDB33
:10161000611A084318D19DED100B53EC102B9DED72
:10162000020B51EC100BFEF76CFE41EC1B0B9FED17
:10163000A40B51EC190B53EC102BFEF7C1FD53EC2E
:101640001B2BFEF765FF2DD2022000F045FA00F0BB
:1016500013FA10EE901A18EE900A8DED020B8DED34
:10166000008B61F31E0003909DED020BFFF7EFBBB3
:10167000954A24F00041914214D3944921440843EF
:101680007FF4E5AC9DED100B53EC102B9DED020BA0
:1016900051EC100BFEF735FE53EC192BFEF738FF1B
:1016A0007FF6D5AC24F0004089498A4A002601EB38
:1016B000205182422BDA481C4FF4801121FA00F0AD
:1016C0002044854AC0F30A517A44A1F2FF3192EDD9
:1016D000000B824A8DED0A0BCA4020EA0202C0F3D9
:1016E000130040F48010C1F1140120FA01F60B92AE
:1016F000002CB8BF76429DED0A0B53EC102B9DEDEC
:10170000100B51EC100BFEF7FCFDCDE910019DED27
:10171000100B51EC190B53EC102BFEF751FD9FED04
:10172000700B0A90CDE90A5153EC102B9DED0A0B7A
:1017300051EC100BFEF7EBFD41EC1B0B9FED6A0B20
:1017400053EC102B9DED0A0B51EC100BFEF7DFFD57
:101750009DED100B41EC1C0B53EC102B9DED0A0B77
:1017600051EC100BFEF7CDFD53EC192BFEF7CCFD21
:101770009FED5F1B53EC112BFEF7C9FD53EC1C2BA7
:10178000FEF71EFD41EC190B51EC1B0B53EC192B12
:10179000FEF716FDCDE902019DED020B53EC1B2B6C
:1017A00051EC100BFEF7ADFD53EC192BFEF7ACFD21
:1017B0009DED020B41EC190B53EC102B51EC100B6F
:1017C000FEF7A5FDCDE90A014B489DED0A0B052169
:1017D000784400F099F89DED0A1B51EC100B53EC86
:1017E000112BFEF794FD9DED021B53EC112BFEF720
:1017F0008BFDCDE906019DED020B53EC192B51EC4D
:10180000100BFEF784FD53EC192BFEF7D9FC9FED6E
:101810003C0B41EC190B53EC102B9DED060B51ECDE
:10182000100BFEF76EFD9DED060B41EC1B0B53EC10
:10183000102B9DED020B51EC100BFEF768FD53ECE5
:101840001B2BFEF7D6FD53EC192BFEF75AFD9DED31
:10185000021B53EC112BFEF754FD53EC1A2BFEF731
:1018600053FDCDE9020101EB065001150029C8BF67
:10187000039015DC9DED020B324651EC100BFEF788
:1018800034FFFFF75FF8042808BF00F005F932467F
:101890009DED020B51EC100BFEF727FFCDE9020185
:1018A0009DED020B51EC180B53EC102BFEF72FFDA6
:1018B000FFF72DBB0000000000009040000000007A
:1018C000FE822B654715973C00CC904000346F3F5B
:1018D00001FCFFFF0000E03FCC130000FFFF0F0002
:1018E00000000000432EE63F396CA80C615C20BE6E
:1018F000EF39FAFE422EE63F9C1200000000000085
:10190000000000000000004070B504462DED028B81
:101910004D1E00EBC500B0EE408AF0EE608A90EDFF
:10192000000B35F0060017D053EC182B51EC100BC0
:10193000FEF7EDFC41EC100B6D1E04EBC50090EDC5
:10194000001B51EC100B53EC112BFEF739FC41EC52
:10195000100B35F00600E7D1022D36D0042D1CD037
:10196000062D1CBFBDEC028B70BD53EC182B51EC47
:10197000100BFEF7CCFC94ED0A1B53EC112BFEF779
:101980001FFC53EC182BFEF7C2FC94ED081B53EC24
:10199000112BFEF715FC41EC100B53EC182B51ECFE
:1019A000100BFEF7B4FC94ED061B53EC112BFEF765
:1019B00007FC53EC182BFEF7AAFC94ED040B53EC38
:1019C000102BFEF7FDFB41EC100B53EC182B51ECE8
:1019D000100BFEF79CFC94ED021B53EC112BFEF751
:1019E000EFFB53EC182BFEF792FC94ED001B53EC2D
:1019F000112BFEF7E5FBBDEC028B41EC100B70BD2B
:101A00009FED070B10B553EC102B9FED070B51EC1E
:101A1000100BFEF7EEFC41EC100B10BD00000000B7
:101A20000000000000000000000000000000F03F87
:101A300010B553EC102B51EC100BFEF7C1FB41EC31
:101A4000100B10BD10B553EC112B51EC100BFEF721
:101A5000B7FB41EC100B10BD9FED050B10B553EC1F
:101A6000102B51EC100BFEF7C4FC41EC100B10BD19
:101A700000000000000000009FED050B10B553ECC6
:101A8000102B51EC100BFEF742FC41EC100B10BD7B
:101A900000000000000000709FED050B10B553EC36
:101AA000102B51EC100BFEF732FC41EC100B10BD6B
:101AB000000000000000001002E008C8121F08C16A
:101AC000002AFAD170477047002001E001C1121FBF
:101AD000002AFBD1704700000149086070470000F0
:101AE000C40200202DE9FF5FDDE90220010DDDF8D1
:101AF00038B0024318D044F61050A1F2FF314143F0
:101B00000D140F98012820D0A5EB0B00401C5FEAB4
:101B1000000A4FF00004474EDFF81C91A0465046E3
:101B200016D5CAF1000728E00F98012443A2012826
:101B300008D0002100980F9BC0E90021C0E90243B2
:101B4000BDE8FF9F6FEA0B01F4E7CBF10000DEE791
:101B5000074612E0F80707D022463346404649467A
:101B6000FEF7D5FB80468946224633461046194685
:101B7000FEF7CDFB04460E467F10002FEAD1DDE9CB
:101B80000201BAF1000F42464B4602DAFEF7BFFBF4
:101B900001E0FEF72EFC04460E460022284BFEF71D
:101BA000B7FC03D84FF0FF30014607E00022254B79
:101BB00020463146FEF704FBFEF7BFFD102409E086
:101BC000002C0ADB0A220023FEF7D0FC019B3032F6
:101BD0001A55641E50EA0102F2D1641C019AC4F144
:101BE000110314440F9A012A03D0012208430DD196
:101BF0000AE0084304D000204FF0110B0F9080E75B
:101C0000A3EB0B056D1E0DE05B4504DD4FF00002FC
:101C100005F1010504E003DA4FF00002A5F101052A
:101C2000002AECD000980F99C0E90231C0E90045C4
:101C300086E70000000024400000F03F3000000074
:101C40000000F0430000E03F2DE9FF4F95B09B46B8
:101C50008946064600250FE2252877D1002427462D
:101C6000F84A0121059400E0044316F8013F203BA7
:101C700001FA03F01042F7D130782A2811D06FF022
:101C80002F033078A0F13002092A16D8059A44F0C3
:101C9000020402EB820203EB42021044761C059020
:101CA000EFE759F8042B0592002A03DA504244F476
:101CB0000054059044F00204761C30782E2816D18A
:101CC00016F8010F44F004042A280DD06FF02F02FB
:101CD0003078A0F13003092B09D807EB870302EB1A
:101CE0004303C718761CF3E759F8047B761C307859
:101CF0006C280FD006DC4C2817D068280DD06A2835
:101D000014D104E0742810D07A280FD10DE044F4E7
:101D100000140AE044F4801401E044F440147278A2
:101D2000824202D104F58014761C761C3078662835
:101D30000BD013DC582877D009DC002875D0452853
:101D4000F6D04628F4D047281AD19DE118E0632840
:101D500035D0642879D0652812D195E1702873D0E8
:101D600008DC6728F1D069286FD06E280DD06F2865
:101D700006D1B5E073282CD0752875D0782874D09A
:101D80005A46179990476D1C75E1C4F3025002281A
:101D900009D003280DD0D9F8001004280DD00D600B
:101DA00009F1040967E1D9F80010EA17C1E9005206
:101DB000F6E7D9F800100D80F2E70D70F0E719F89A
:101DC000041B8DF8001000208DF80100EA46012068
:101DD00003E059F804AB4FF0FF3061074FF000010A
:101DE00002D40DE008F101018846B9420FDA8045BE
:101DF000F8DB1AF808100029F4D108E008F1010115
:101E000088468142FADB1AF808100029F6D10598B5
:101E10005B46A0EB080721463846179A00F094FA73
:101E2000284400EB080507E04DE029E10DE01AF831
:101E3000010B5A4617999047B8F10108F7D25B4653
:101E400021463846179A13E142E00A220092C4F371
:101E500002524FF0000A022A08D059F804CB032A94
:101E60004FEAEC710AD00DE029E02AE009F1070100
:101E700021F00702F2E802C1914609E00FFA8CFC5A
:101E80004FEAEC71042A03D14FFA8CFC4FEAEC7153
:101E9000002907DA0A460021DCF1000C61EB02019F
:101EA0002D2202E0220504D52B228DF804200122E8
:101EB00003E0E20701D02022F7E7904659E00A212B
:101EC00002E010220DE010214FF0000A00910BE01B
:101ED00010224FF0000A44F004040827009203E0A7
:101EE00008224FF0000A0092C4F30252022A05D0E1
:101EF00059F804CB0021032A08D009E009F10701B1
:101F000021F00702F2E802C1914605E01FFA8CFCBD
:101F1000042A01D10CF0FF0C4FF00008220728D54D
:101F2000702806D0009B83F0100353EA0A0305D003
:101F30000EE040228DF80420012208E05CEA010254
:101F400006D030228DF804208DF80500022290463C
:101F5000009B83F0080353EA0A030AD15CEA0102FA
:101F600001D1620705D530228DF804204FF0010819
:101F70007F1E582804D034A003900EA802900DE0D4
:101F800036A0F9E753466046009AFEF7EFFA84461A
:101F90000398825C0298401E029002705CEA010085
:101FA000F0D1029806A9081A00F1200A600702D5AC
:101FB00024F4803400E00127574502DDA7EB0A0036
:101FC00000E0002000EB0A01009005984144401A0F
:101FD0000590E00306D45B462146179A059800F069
:101FE000B3F90544002706E001A85A46C05D1799D9
:101FF00090476D1C7F1C4745F6DBE0030CD55B4624
:102000002146179A059800F09FF9054404E0302016
:102010005A46179990476D1C0099481E0090002958
:10202000F5DC08E0029802995A460078491C0291B2
:10203000179990476D1CBAF10001AAF1010AF1DC71
:1020400065E100000928010030313233343536377C
:1020500038396162636465660000000030313233F4
:102060003435363738394142434445460000000094
:1020700000F058F90544761C307800287FF4ECAD68
:1020800019B02846BDE8F08F620700D4062709F191
:10209000070222F0070CFCE80223E14603F00048A7
:1020A0005FEA080C02D00FF2702C0DE05FEA045CCE
:1020B00002D50FF2682C07E05FEAC47C02D00FF271
:1020C000602C01E0AFF2700C4FF0FF3823F00043BA
:1020D000CDF850C065280CD006DC452809D046282C
:1020E0001DD047283DD13DE0662818D067287ED115
:1020F00038E00021112F01DB112000E0781CCDE930
:10210000000106A90EA8FFF7EDFCDDE90F010E9A0C
:1021100003910021009207F1010A04914DE04FF074
:1021200000400097CDE9011006A90EA8FFF7DAFCE0
:10213000DDE90F0203920E9B11990022DDF80CA03D
:102140000093049211B9791C00EB010AB7EB0A0065
:1021500004D4C0F1FF3007F1010A0490AAEB070094
:10216000019044E0012F00DA01270021112F01DD49
:10217000112000E03846CDE9000106A90EA8FFF7BE
:10218000B1FCDDE90F010E9A039100210491009248
:10219000BA4621070CD40399514500DA8A46BAF1B0
:1021A000010F05DD009AAAF10101515C302908D028
:1021B000B84202DA10F1040F06DA0121CDE901106C
:1021C00015E0AAF10101E9E7002805DC04990144C2
:1021D0000491AAEB000102E0411C514500DD8A4652
:1021E0000499401A401C01904FF0004002902007D3
:1021F00004D40198504501DBCDF8048000208DF80F
:102200004F0002980DF14F07B0F1004F25D02B2061
:102210000E9002984FF0020800280CDA404202901B
:102220002D200E9007E00A210298FEF789F930313F
:10223000029007F8011DB8F10001A8F10108F2DCD5
:1022400002980028EFD1791E0E980870307800F0BF
:10225000200040F0450007F8020D12A8C01B00F155
:1022600007081498007800B1012000EB0A010198DA
:1022700001EBE07105984144401A401E0590E003CF
:1022800006D45B462146179A059800F05DF8054490
:102290001498007818B15A46179990476D1CE003BE
:1022A00024D55B462146179A059800F04DF8054461
:1022B0001CE00498002807DBDDE90301884203DD08
:1022C0000098405C179901E0179930205A469047D2
:1022D000049805F10105401C04900198401E0190EE
:1022E00004D12E205A46179990476D1CBAF100016F
:1022F000AAF1010ADDDC05E017F8010B5A4617992F
:1023000090476D1CB8F10001A8F10108F4DC5B46B0
:102310002146179A0598ABE62D0000002B0000001F
:10232000200000002DE9F041044600251E46174616
:10233000880404D405E039462020B0476D1C641E93
:10234000F9D52846BDE8F0812DE9F0410446002585
:102350001E469046C80301D5302700E02027880498
:1023600004D505E041463846B0476D1C641EF9D5DA
:102370002846BDE8F08182B0CDE9000121F000409F
:1023800001909DED000B02B051EC100B7047000066
:10239000074A126802F0807242B100BF4FF06042FB
:1023A0001268002AFAD04FF060431870704700009E
:1023B000FCED00E010B52DED0E8BB0EE40AAF0EE76
:1023C00060AAB0EE41BAF0EE61BAB0EE428AF0EE29
:1023D000628A53EC1B2B51EC1A0BFDF792FF41EC78
:1023E000190B53EC192B9FED1B0B51EC100BFDF748
:1023F0008EFF41EC1E0B53EC192BFDF788FF41ECCF
:10240000190B53EC182B9FED150B51EC100BFDF72E
:102410007EFF41EC1E0B53EC182BFDF778FF41ECCF
:102420001C0B53EC1C2B51EC190BFDF7E2FF41EC9C
:102430001E0BB0EE4E0AF0EE6E0AFEF79DFAB0EEFD
:1024400040DAF0EE60DAB0EE4D0AF0EE6D0ABDEC67
:102450000E8B10BD000000000000F0BF0000000067
:10246000000000401FB5054B0FCB8DE80F006846FC
:1024700000F062F8002004B010BD0000C828000879
:1024800070B505460E4600240CA0FEF74BFA00BFBF
:102490000DE005EBC40090ED001BB0EE410AF0EE3C
:1024A000610A53EC102B06A0FEF73CFA641CB44200
:1024B000EFDB02A0FEF736FA70BD00000D0A000047
:1024C000202565200000000000B52DED048B83B0B1
:1024D00041EC190BFEF774F941EC180B18EE100AD9
:1024E00018EE901A8DED008B002818BF01200843CC
:1024F00020F00040C0F17F6000F1E040C00F14D038
:1025000019EE101A19EE900A8DED009B002918BFE4
:102510000121084320F00040C0F17F6000F1E0405D
:10252000C00F04BF0120FFF7D7FA51EC180B03B01E
:10253000BDEC048B00BD000070B52DED068BF0B036
:102540000646002400259FEDB70BB0EE408AF0EE62
:10255000608AB6A0FEF7E6F900BF1EE006EBC500F4
:1025600090ED002BB0EE420AF0EE620A06EBC500D9
:1025700090ED002BB0EE421AF0EE621A53EC102BE5
:1025800051EC110BFDF7C3FE41EC1A0B53EC192B68
:10259000FDF716FE41EC190B6D1C022DDEDB9FEDE5
:1025A000A10BB0EE408AF0EE608A002412E19FEDAC
:1025B0009D0B684600EBC40080ED000B002564E035
:1025C000C5EBC500A24901EB401000EBC40090ED43
:1025D000002BB0EE420AF0EE620AC5EBC50001EB3B
:1025E000401000EBC40090ED002BB0EE421AF0EE6C
:1025F000621A53EC102B51EC110BFDF788FE41ECE5
:102600001A0B38A800EBC40090ED001BB0EE410A95
:10261000F0EE610A53EC102B51EC1A0BFDF7D0FDD4
:1026200038AA02EBC40203C2C5EBC500884901EB1E
:10263000401000EBC40090ED002BB0EE420AF0EE2B
:10264000620A06EBC50090ED002BB0EE421AF0EEE8
:10265000621A53EC102B51EC110BFDF758FE41ECB4
:102660001A0B684600EBC40090ED001BB0EE410A67
:10267000F0EE610A53EC102B51EC1A0BFDF7A0FDA4
:102680006A4602EBC40203C26D1C022D98DB684649
:1026900000EBC40090ED001BB0EE410AF0EE610AC1
:1026A00053EC102B9FED6B1B51EC110BFDF72FFE24
:1026B00041EC1A0B38A800EBC40090ED001BB0EE03
:1026C000410AF0EE610A53EC102B51EC1A0BFDF7A6
:1026D00077FD6A4602EBC40203C2684600EBC40001
:1026E00090ED001BB0EE410AF0EE610A53EC192B9D
:1026F00051EC100BFDF764FD6A4602EBC40203C205
:102700009FED562B9FED471B9FED560BFFF752FE9B
:10271000B0EE40AAF0EE60AA684600EBC40090ED6F
:10272000000BB0EE401AF0EE601AB0EE4A0AF0EE7E
:102730006A0AFEF7CDFA684600EBC40080ED000B94
:10274000684600EBC40090ED002BB0EE420AF0EEBC
:10275000620A464800EBC40090ED002BB0EE421A2E
:10276000F0EE621A53EC102B51EC110BFDF7CFFD7C
:102770006A4602EBC40203C2684600EBC40090ED57
:10278000002BB0EE420AF0EE620A394800EBC400BA
:1027900090ED002BB0EE421AF0EE621A53EC102BC3
:1027A00051EC110BFDF7B3FD6A4602EBC40203C204
:1027B000684600EBC40090ED001BB0EE410AF0EE5D
:1027C000610A53EC102B51EC180BFDF7F9FC41ECAE
:1027D000180B641C1C2CFFF6EAAE1C216846FFF7A0
:1027E0004FFE1C2123A0FEF79DF853EC182B25A0CB
:1027F000FEF798F89FED0B0B53EC102B51EC180BD8
:10280000FDF786FE03D226A0FEF78CF802E029A091
:10281000FEF788F851EC180BFDF75AFE70B0BDECCE
:10282000068B70BD00000000000000000A20426915
:10283000736D696C6C616820486972205261686DC3
:10284000616E204E69722052616865656D200A00D4
:102850000000002000000000000000C09A99999933
:102860009999B93F000000000000F03FD828000807
:10287000C00100200A2047726F757073203D20252B
:10288000692000000A204465636973696F6E2056F1
:1028900061726961626C65203D2025652000000041
:1028A0000A2047756E73686F74204465746563749D
:1028B000656400000A204E6F697365205369676E76
:1028C000616C000000000000666666666666E63FB2
:1028D000666666666666E63F000000000000F03F40
:1028E000000000000000F03F000000000000F03F8A
:1028F000000000000000F03F000000000000F03F7A
:10290000000000000000F03F000000000000F03F69
:10291000000000000000F03F000000000000F03F59
:10292000000000000000F03F000000000000F03F49
:10293000000000000000F03F000000000000F03F39
:10294000000000000000F03F000000000000F03F29
:10295000000000000000F03F000000000000F0BF99
:10296000000000000000F0BF000000000000F0BF09
:10297000000000000000F0BF000000000000F0BFF9
:10298000000000000000F0BF000000000000F0BFE9
:10299000000000000000F0BF000000000000F0BFD9
:1029A000000000000000F0BF000000000000F0BFC9
:1029B000000000000000F0BF000000000000E03F49
:1029C000000000000000E0BF0000E0FE422EE63FF5
:1029D0000000E0FE422EE6BF763C7935EF39EA3D55
:1029E000763C7935EF39EABD3E5555555555C53FCD
:1029F00093BDBE166CC166BF2CDE25AF6A56113F73
:102A0000F16BD2C541BDBBBED0A4BE726937663E74
:102A1000000000000000F03F000000000000F83F50
:102A200000000000000000000000004003B8E23F8A
:102A3000000000000000000006D0CF43EBFD4C3E3C
:102A4000033333333333E33FFFAB6FDBB66DDB3F31
:102A50004D268F515555D53F01411DA96074D13F79
:102A600065DBC9934A86CD3FEF4E454A287ECA3F73
:102A70003E5555555555C53F93BDBE166CC166BFF5
:102A80002CDE25AF6A56113FF16BD2C541BDBBBEEE
:102A9000D0A4BE726937663E00000000000000004E
:102AA000C02A000800000020C802000062080008D8
:102AB000682D0008C802002000040000C81A0008A1
:102AC00000FF00BA49BBBA2B87E23FD33FE98D58DC
:102AD00080E93F399F1E01FA02DB3FCA72D5E64604
:102AE0006BCE3FDDABAA258A01EF3FD4168D6B324A
:102AF000A9E83F4AC052D786FCDE3F7AC5BB72A91F
:102B000049CB3F8FA09306000CCC3F0562DC84B01C
:102B1000576E3F63F5D20A8FDA1D3F3F9358ADA73A
:102B2000B1183FFC9D375F364BC33E14FFFB7C2939
:102B300076B33E5F196547F47C873E284AFFE0750F
:102B400055463E7E0CAE9D4E20FB3F6A340F19BCAD
:102B50002B024027728E2857F2DC3F1621562E3D5D
:102B600022CD3FA3570394869E0040ECC20FCEA710
:102B700082024039C80ACF6219044020625DBEF06B
:102B8000A404406BBD5B3023B20540D0FF45ACD2FE
:102B90000D04409AC5BE76C6290740AF98F588EF68
:102BA000E10040DB1FCFFEA524C43F45978B86F98B
:102BB000E3BB3FA889139F08D0BA3FD9DD5FE43556
:102BC00094701AB73F6C2434427244B33F1FF0F341
:102BD000F16613B43F5666EC796E89B318700862DB
:102BE00023A1119223AA30239A9901703AA93FFC9C
:102BF000E6296BCED3A53F607EA9CAB771A73F6F08
:102C0000C201506CD5AC3F7CB9A58EBB2C973F4818
:102C10008D9C94681A9D3F00D610405DE9AD3F0938
:102C200032AC296358B44830DA885F300676FFB298
:102C30003F7277F97DCF2DC13FF06A8EB3B617CCC6
:102C40003F35D82A7A0DE5C53F713D0AD7A370CD2F
:102C50003F2A018709D0DABE3FB126C8681A1DCEC7
:102C60003F5CFACA95D750BE3F12CF60F374A5C738
:102C70003F9AF050B67612DD3F3E751436EF97D48A
:102C80003F3ED4111B876D2740A5203D1A8EC81FDB
:102C90004011260E9EDE5CEB3FDC047550DDAADCA5
:102CA0003F0F2174F1338F2440736E2C8B36E51562
:102CB000401FC2E68620C71D4062923E6B864DDEF5
:102CC0003F6444484E8E06703C94F891A4B5047954
:102CD0003C62D66D7D6E01813CDC75027860C5C2B8
:102CE0003CAAB2FCB4E2BFDA3F3F4A1A13CA114E03
:102CF0003F3F23C2D3EC30F03F6CDBEB3521A3E444
:102D00003F000163344008C05B66E043339663E5EF
:102D10003F85261C89B634E43F36CF8807D1D0D40E
:102D20003FB48B396D6500D83F4013C4ED8E84E607
:102D30003FC8BE66E4ECD0D33F07FD964A892EEC2F
:102D40003FAE7BA5D843CED13F7517CD6F3DDD2576
:102D5000C0E80B9BAD2EDAD4BFE09C11A5BDC187A6
:082D60003F1C0001000000000F
:040000050800018965
:00000001FF
