:020000040800F2
:10000000E06600205D020008650200086702000843
:10001000690200086B0200086D0200080000000081
:100020000000000000000000000000006F02000857
:100030007102000800000000730200087502000849
:1000400077020008770200087702000877020008AC
:10005000770200087702000877020008770200089C
:10006000770200087702000877020008770200088C
:10007000770200087702000877020008770200087C
:10008000770200087702000877020008770200086C
:10009000770200087702000877020008770200085C
:1000A000770200087702000877020008770200084C
:1000B000770200087702000877020008770200083C
:1000C000770200087702000877020008770200082C
:1000D000770200087702000877020008770200081C
:1000E000770200087702000877020008770200080C
:1000F00077020008770200087702000877020008FC
:1001000077020008770200087702000877020008EB
:1001100077020008770200087702000877020008DB
:1001200077020008770200087702000877020008CB
:1001300077020008770200087702000877020008BB
:1001400077020008770200087702000877020008AB
:10015000770200087702000877020008770200089B
:10016000770200087702000877020008770200088B
:1001700077020008770200087702000800000000FC
:1001800077020008770200084B1C012B98BF7047CC
:100190002DE9F003911C9B08B1F80480B1F802909E
:1001A0000A8831F802CC8044814402448444D9F85E
:1001B0000070D8F800601568DCF80040C9F80060ED
:1001C000C8F80070CCF800501460D9F80470D8F862
:1001D00004605568DCF80440C9F80460C8F804708D
:1001E000CCF80450546008315B1ED5D1BDE8F00353
:1001F00070474B1C012B98BF70472DE9F003911CF1
:100200009B08B1F80480B1F802900A8831F802CC5A
:1002100000EB580800EB590900EB520200EB5C0CB4
:10022000D9F80070D8F800601568DCF80040C9F80B
:100230000060C8F80070CCF80050146008315B1EF4
:10024000DFD1BDE8F0037047DFF80CD001F0B4FA5D
:100250000048004799210008E066002006488047D2
:1002600006480047FEE7FEE7FEE7FEE7FEE7FEE79B
:10027000FEE7FEE7FEE7FEE73D180008490200083A
:10028000DFED190AB5EEC00A60EE200ABDEEE01AF5
:1002900011EE100AF1EE10FA38BF401E00EE100AFF
:1002A0001349F7EE001AB8EEC00A30EEC00ADFEDCF
:1002B0000F0A60EE200ABCEEE00A10EE100AC0F34E
:1002C000080000EE100A01EB8000B8EE400A90ED45
:1002D000011A70EEC00A90ED000A71EEE01A21EEEC
:1002E000800A00EE810A704783F9223E0000004434
:1002F0001857010891ED000AD1ED010AD0F814C099
:1003000030EE001A70EEA00A0088B6EE000A431E16
:1003100071EE201A71EE600A0CF1080001EBC30CBB
:1003200061EE801A60EE800A0831C2ED001AC2ED5B
:10033000010A08329CED003A91ED001ADCED010A49
:10034000D1ED011A73EE413AD0ED002A90ED012A69
:1003500030EEA14A62EEA34A31EE031A62EE233A6E
:1003600071EEE00A22EE042A31EE241A62EE842AAB
:1003700070EEA30A083031EE021A083170EEE20A7C
:10038000ACF1080C21EE001A60EE800A82ED001A32
:10039000C2ED010A08325B1ECCD17047D1ED000AD4
:1003A00091ED011AD0F814C0008870EE811A70EE39
:1003B000C10AB6EE000A431E61EE801A60EE800AA2
:1003C0000CF10800C2ED001AC2ED010A01EBC30CEA
:1003D00001F1080102F1080208BF7047DCED010AD3
:1003E0009CED003A91ED002A91ED011A90ED004A42
:1003F00072EE431AD0ED013A71EE202A32EE032A52
:1004000064EE214A63EEA11A71EE600A23EEA25A4D
:1004100032EE642A64EE222A70EEA10A083032EE2F
:10042000452A083170EEE20AACF1080C22EE002AEF
:1004300060EE800A82ED002AC2ED010A08325B1EDE
:10044000CCD170472DE9F0410446008A1D004FEAE7
:10045000500016460F4620800AD02046FFF79EFF28
:100460002A4631462046BDE8F041012300F08CBB0E
:1004700001232A46204600F087FB324639462046B3
:10048000BDE8F04136E700004A08002302800182FF
:10049000B2F5807F31D008DC102A4FD0202A45D019
:1004A000402A3BD0802A31D008E0B2F5007F1BD033
:1004B000B2F5806F0FD0B2F5006F03D04FF0FF336D
:1004C000184670474FF46E628281214A8260214A49
:1004D0002149426039E04FF4E16282811F4A826023
:1004E0001F4A2049426030E04FF4E07282811E4A88
:1004F00082601E4A1E49426027E04FF4DC7282810E
:100500001C4A82601C4A1D4942601EE0D022828142
:100510001B4A82601B4A1C49426016E038228281D5
:100520001A4A82601A4A1B4942600EE030228281D8
:10053000194A8260194A1A49426006E014228281EF
:10054000184A8260184A194942604161B8E70000C0
:10055000D8B900084062000818170108C8AB0008A5
:100560004042000818F7000848A800084032000878
:1005700018E70008D8A40008402A000818DF00087F
:1005800038A300084026000818DB0008C8A20008AD
:100590004024000818D9000868A200084023000879
:1005A00018D8000840A20008C022000898D7000808
:1005B0002DE9F04106462DED028B8C4600887368CC
:1005C00001EB80044508274601EB850004EB85021A
:1005D0005FEA95087DD000BFD1ED003AD4ED001A56
:1005E00091ED012A94ED013A73EEA16A91ED024A70
:1005F00091ED031AD4ED022AD4ED035A90ED008A4E
:1006000090ED017A90ED020A90ED036A92ED005AA6
:10061000D2ED014AD2ED027AD2ED030AC1ED006AB1
:1006200072EE036A73EEE13A74EEC71AC1ED016A25
:1006300074EE226A74EE622A37EEC04AC1ED026A95
:1006400071EE256AC1ED036A72EE436A31EE652AE6
:1006500038EE051A35EE483A80ED001A37EE241AC6
:1006600080ED011A30EE271A80ED021A36EE201ABC
:1006700080ED031A30EEC61A93ED000AD3ED010A9D
:1006800063EE804A26EEA05A66EE805A63EEA03AE8
:1006900074EE854A75EEE33AC4ED004A63EE204AF3
:1006A000C4ED013A61EE803A61EEA00A23EE000A41
:1006B00074EEE31A30EE800AC2ED001A82ED010AF0
:1006C00093ED020AD3ED030A62EE803A22EE203A5D
:1006D00000E024E062EEA01A22EE002A73EE832AE4
:1006E0001030103172EE611AC4ED022A24EE202A75
:1006F000C4ED031A61EE001A61EE200A24EE000A2E
:10070000103332EE611A103430EE800A82ED021A94
:1007100082ED030A1032B8F101087FF45DAF29467B
:1007200002236046726800F0D5FA72682946BDEC73
:10073000028B3846BDE8F041022300F0CBBA2DE928
:10074000F34F2DED048B87B00B980088470801EB21
:10075000870000EB870606EB8705CDE90056DDF83C
:100760002C80A5F1040C0CEB8703CDE902014FEAC4
:100770005709D8F804800427CDE90497D1ED000A81
:1007800096ED000A90ED011A95ED013A70EE802A7F
:1007900070EEC03AD1ED010A96ED010A041F321F36
:1007A00030EE802A70EEC01A31EE230AD0ED000A36
:1007B00032EE415A33EEC11A30EE434A71EEE04A4E
:1007C00095ED000A70EEA11A35EE435A74EE805A88
:1007D00072EEE04A70EEA20A71EEC01A31EE031A10
:1007E00074EEC04A30EE800A062708F1080A81ED4F
:1007F000000A90ED010AD5ED010A08F1100B30EE68
:10080000020A08F1180830EE200A81ED010A80ED95
:10081000004AC0ED015AC6ED004A86ED015A85ED49
:10082000001AC5ED011ADDF81090083008310835BE
:100830000836A9F102095FEA590900F0078100BFF3
:10084000D1ED000A96ED000AD0ED011AD5ED014A6E
:1008500030EE802A30EEC05AD1ED010A96ED010A41
:1008600070EE802A30EEC01A31EE850AD5ED000A0E
:1008700030EE644A90ED000A31EE403A30EE011A53
:1008800073EE205A32EE403A30EE020A31EE601A30
:1008900073EE603A30EE200A32EEE13A75EE611AFC
:1008A00081ED000A90ED010AD5ED010A33EE643ABC
:1008B00030EE220A71EEA41A30EE200A81ED010A10
:1008C000D4ED002ADCED004A54ED010A1CED010ACA
:1008D00032EEA47A32EEE49A72EEE42A52ED018A04
:1008E00070EE807A30EEC02A72EEE82AD2ED000A6D
:1008F00093ED000A13ED018A30EEC05A72EE886A59
:1009000077EEE82A35EE026A32EEC85A77EE602AB0
:1009100072EEC04A70EEC02A70EE870A72EEC22AEA
:1009200030EE800A38EE682A84ED000A12ED010AE2
:1009300053ED010A32EE492A30EE270A30EE200A42
:1009400004ED010A9AED000ADAED010A64EE007A7C
:1009500025EEA07A65EE805A24EE204A37EE877A9B
:1009600035EEC44A80ED007A80ED014A26EEA04AB9
:1009700066EE005A66EE200A26EE800A083034EE53
:10098000654A083130EE800A82ED004A083C02EDEB
:10099000010A9BED000ADBED010ADDF814E023EE0D
:1009A000804A63EE205A23EE003A63EEA03A083AFA
:1009B00034EE254A0BEB8E0B33EE633A86ED004A9C
:1009C0000AF1080A86ED013AB1EE643A083663EEA0
:1009D000003A25EE203A25EE000A64EEA00A33EE36
:1009E000C33A30EEC00A8CED003A0CED010A98EDE6
:1009F000000AD8ED010A08EB870861EE803A21EE83
:100A0000203A21EE001A61EEA01AACF1080C33EE88
:100A1000833A31EE611A85ED003A62EE801A85ED77
:100A2000011A22EE201A62EEA00A22EE000A083510
:100A300031EE611A30EE800A83ED001A03ED010AEF
:100A4000083BB9F101097FF4FBAE00BFD1ED000A0C
:100A500096ED000A91ED011AD0ED015A30EE802A90
:100A600070EEC00A96ED010A95ED015A042371EE6D
:100A7000001A71EE404A35EEA00A90ED001A31EEF0
:100A8000E54A70EEE50A30EE453A95ED000A34EE9F
:100A9000454A30EE855A74EEC12A72EE413A71EE43
:100AA000240A31EE021A72EE802A73EEC03A70EE1A
:100AB000C00A31EE000A81ED000A90ED010A95EDC1
:100AC000011A30EE210A30EE010A81ED010A9AED99
:100AD000000A9AED011A63EE001A22EE812A22EE34
:100AE000800A23EE011A71EE821A30EE410AC0ED3F
:100AF000001A80ED010A9BED000A9BED011A63EEDE
:100B0000801A24EE012A24EE000A23EE811A71EEE7
:100B1000821A30EE410AC6ED001A86ED010A98ED00
:100B2000010A98ED001A60EE801A25EE012A60EEA7
:100B3000810A25EE000A32EE211A30EEC00A85ED58
:100B4000001A85ED010A0B984268DDE9030100F007
:100B5000C1F80B98042304994268029800F0BAF88F
:100B60000B98042304994268019800F0B3F80B989D
:100B7000049904234268009807B0BDEC048B02B0CE
:100B8000BDE8F04F00F0A6B82DE9F0410488984682
:100B900017460D460646012A20D1281DF4B1A0F1C2
:100BA000080114F0010F06D091ED020AB1EE400ADF
:100BB00081ED020A08315FEA540C0FD091ED020A70
:100BC000B1EE400A81ED020A91ED040AB1EE400A4D
:100BD00081ED040A1031BCF1010CEFD1B4F5807F36
:100BE0001BD008DC102C13D0202C16D0402C19D090
:100BF000802C0DD01CE0B4F5007F13D0B4F5806FCD
:100C000006D0B4F5006F08D0B4F5805F0AD00FE0CD
:100C100029463046FFF7CCFC0AE029463046FFF76C
:100C20008EFD05E0214601232846726800F052F847
:100C3000B8F1000F04D0B1892846B268FFF7A4FAD2
:100C4000012F18BFBDE8F08100EE104AB7EE001A80
:100C5000002CF8EE400A81EE200A08BFBDE8F081C2
:100C6000A5F1080014F0010F0ED0D0ED020A60EEDD
:100C7000800AC0ED020AD0ED030AF1EE600A60EED0
:100C8000800AC0ED030A0830610808BFBDE8F081A2
:100C9000D0ED020A60EE800AC0ED020AD0ED030A30
:100CA000F1EE600A60EE800AC0ED030AD0ED040A9E
:100CB00060EE800AC0ED040AD0ED050AF1EE600A8C
:100CC00060EE800AC0ED050A1030491EE0D1BDE893
:100CD000F08100002DE9FF4F2DED108B82B09FEDCC
:100CE000FEFA0B461C46DB084FF0000C0CEB03052C
:100CF00005EB030808EB030909EB030606EB030AFF
:100D000000EBCC0700EBC60697ED001AD6ED000A03
:100D10000AEB030B00EBC50500EBCA0A31EE200A13
:100D200071EE601A95ED002ADAED000A0BEB030E66
:100D300000EBC80832EE201A00EBCB0B32EE602A33
:100D4000D8ED002ADBED000A00EBC90900EBCE0E5E
:100D500099ED003A9EED004A72EEA03A72EEE02A5A
:100D600073EE040A33EE443A70EE636A70EE233A8F
:100D700031EE600A71EE200A33EEA01A73EEE00A3B
:100D800087ED001AC6ED000A97ED011AD6ED010AAB
:100D9000D5ED013A98ED014A31EE206A71EE600A14
:100DA0009AED011A99ED015A73EE814A73EEC13A38
:100DB0009BED011A34EE017A34EE411A9EED014AA0
:100DC00075EE045A35EE444A36EE475A36EE076A57
:100DD00034EEE57A74EEA54A76EE245A76EE644A4D
:100DE000C7ED015AC6ED014A76EE874AC8ED004AC2
:100DF00076EEC74ACBED004A75EE404A35EE000A62
:100E0000C8ED014A8BED010A32EE430A32EE032AA5
:100E100020EE0F0A62EE0F4A33EEC42AA4448C453A
:100E200022EE0F3A33EE842A30EEC34A62EE0F3AD6
:100E300030EE833A31EEC02A31EE800A71EE630A59
:100E400031EE231A72EEE41A72EEA42A70EE013A21
:100E500030EE410AC5ED003A8EED000A32EE200A6E
:100E60008AED000A32EE600A89ED000A33EE620A6A
:100E700085ED010A33EE220A8EED010A34EE610A95
:100E80008AED010A34EE210A89ED010AFFF42EAF42
:100E9000082B3FBF02B0BDEC108B04B0BDE8F08F53
:100EA0004FF0000CCDF804C04FF0010CCDF800C09D
:100EB000DDF804C0159DAC444FEA8C0505EB0C072A
:100EC000CDF804C007EB0C094FEA4C0808EB0C0600
:100ED00009EB0C0A02EBCC0C02EBC80802EBC606CD
:100EE00002EBC50502EBC70702EBC90902EBCA0A10
:100EF0009CED00DA9CED018AD8ED00CA96ED00CA9F
:100F0000D5ED00BA97ED00BAD9ED00AADAED008A66
:100F1000D8ED017A96ED01AA95ED017AD7ED016A37
:100F200099ED016ADAED019ADDF800C00CEB0307D8
:100F3000FD1805EB030A0AEB030808EB030606EBB2
:100F4000030B00EBCC0900EBC808D9ED000A98EDC3
:100F5000000A00EBC70700EBC606D7ED001A96EDB6
:100F6000001A70EE803A0BEB030E70EEC00A31EE01
:100F7000810A00EBC50500EBCB0B31EEC11AD5EDB4
:100F8000001A9BED002A00EBCA0A00EBCE0E31EEF0
:100F9000824A71EEC21A9AED002ADEED002A32EE84
:100FA000223A32EE622A73EEC42A73EE843A30EEAD
:100FB000435A30EE030A33EE803A73EEC0DA89ED1D
:100FC000003A99ED010A98ED013AD7ED013A95ED15
:100FD000014A70EE03EA30EE433A96ED010A9AEDCB
:100FE00001EADEED014A33EE809A73EEC03A9BEDE2
:100FF000010A74EE005A34EE404A3EEE240A7EEEB8
:10100000644A3EEEE5EA7EEEA55A79EE40EA39EE14
:10101000009A32EEAE0A72EEEE2A75EE89EA35EEED
:10102000C99A7EEE455AC9ED01EA3EEE055A2BEE0D
:10103000ADEA67EE09EA2BEE899A67EE2DDA3EEE0D
:101040002EEA39EE6D9A88ED00EA67EEA5DA88EDB2
:10105000019A2CEE809A6CEEA55A27EE800A39EEA2
:101060002D9A35EEC00A85ED009A66EE055A85ED9B
:10107000010A2AEEA20A2AEE855A66EE222A30EEEC
:10108000250A8BED000A35EE620A73EEA42A8BED79
:10109000010A31EE420A31EE021A33EEE42A62EE20
:1010A0008F3A20EE0F0A21EE0F1A22EE0F2A70EE71
:1010B000C02A30EE800A71EEC10A71EE811A33EE59
:1010C000421A33EE022A34EE633A34EE234A70EECB
:1010D000043A30EE444A01E0F304353F72EE834AAD
:1010E00072EEC32A32EE613A32EE210A71EE601AD4
:1010F00071EE200A2DEE232A28EE031A2DEE033A74
:1011000068EE233AA44432EE011A28EE842A8C4574
:1011100087ED001A33EE631A29EE843A87ED011A3F
:1011200029EE801A28EE800A32EE011A30EE430AC8
:1011300026EEA42A8EED001A8EED010A2BEE240A6B
:1011400026EEA11A6BEE211A30EE010A2CEE221ABD
:1011500086ED000A31EEC20A6AEE221A86ED010A15
:101160002AEE200A6CEE200A31EE000A8AED000A0F
:1011700030EEE10A8AED010AFFF4D8AEDDF800C0D6
:101180000CF1010CCDF800C063453FF691AEDDF8DF
:1011900054C04FF6FF7404EACC0CCDF854C0072BB2
:1011A0003FF6A0AD02B0BDEC108B04B0BDE8F08FEF
:1011B0002DE9FE4F804681EA0300C00F0C460090E7
:1011C00021F0004123F00045B8EB0200A94105D20F
:1011D0004046214690461C460B46024623F00040FE
:1011E000104347D0270DC7F30A00C3F30A510290FA
:1011F000401A019040286BDAC3F3130040F4801BBF
:101200000098924620B10023D2EB030A63EB0B0B4C
:1012100001985946C0F14002504600F0F0F90646E8
:101220000D4650465946019A00F008FA10EB0800A6
:101230006141002487EA115284EAE7731A4340D0DF
:10124000009A62B3019A012A4FEA075215DC001B8B
:1012500061EB02014FF0004202EA0752CDE9004281
:10126000001C41F5801132462B4600F03FFA03B0D6
:10127000BDE8F08F40462146F9E7001B61EB020113
:10128000001C41F5801300185B412018A2F50017DF
:1012900047EB030140EAD570B6196D4111E06D08C6
:1012A0004FEA360645EAC0754FEA0752001B61EB6C
:1012B0000201001C41F5801149084FEA3000001975
:1012C000514132462B4603B0BDE8F04F00F0FFB964
:1012D0000098012240000023D0EB020263EBE07390
:1012E000009821464FEAE074B8EB000061EB04017E
:1012F000E9E783F000435BE781F0004158E72DE91F
:10130000FE4F81EA030404F0004421F00041009400
:101310004FF0000B23F0004350EA01045ED052EA84
:1013200003045BD0C3F30A54C1F30A552C44A4F25E
:10133000F3340194A0FB0254C1F3130141F4801172
:10134000C3F3130343F4801301FB024400FB034E79
:10135000840A970A44EA815447EA8357A4FB076842
:1013600002958D0A05FB07854FEA932C04FB0C546C
:101370002705029D4FEA065847EA1637B5EB0805E0
:101380006EEB070C870E920E47EA811742EA831232
:10139000A7FB0201B6EB0B0164EB00042B0D43EA43
:1013A0000C335E1844EB1C50DA465146E7FB020151
:1013B000C5F313044FEA0B3343EA14534FEA0432E4
:1013C000019C43EA0603A4F10C040294009CCDE9BD
:1013D00000B400F08BF903B0BDE8F08F00200146A7
:1013E000F9E72DE9F04D81EA030404F0004B21F008
:1013F000004514464FF0000A23F0004150EA050270
:1014000020D054EA01021DD0C5F30A570246C5F3A5
:101410001303C1F31300C1F30A5640F4801543F4DB
:101420008013A7EB0608101BD64608F2FD3873EBB5
:10143000050002D308F1010801E092185B41B8F100
:10144000000F03DA00200146BDE8F08D00204FF4C4
:101450008011064684460EE0171B73EB050705D383
:10146000121B63EB050306434CEA010C49084FEAE3
:10147000300092185B4150EA0107EDD152EA0300B7
:1014800012D082EA040083EA0501084305D0101B4C
:10149000AB4106D20122002306E000224FF00043B8
:1014A00002E06FF0010253101AEB06004CEB0851FA
:1014B00010EB0A0041EB0B01BDE8F04D00F007B95D
:1014C0000EB5C10F80EAE0700844CA07002140F25F
:1014D00033438DE80E000A460B4600F007F903B0CF
:1014E00000BD00F0004230F000400AD0C10D01F50F
:1014F0006071C0F3160042EA0151C208400711436F
:10150000704700200146704730B5041E71F1000499
:1015100004DB4FF00044404264EB0101141E73F100
:10152000000405DB1C464FF00043524263EB04030A
:10153000994208BF904230BD01F0004330B421F021
:10154000004150EA010206D00A0DA2F56072C1F313
:101550001301002A02DC30BC00207047440F44EA2B
:10156000C104C100E01830BC00EBC25000F078B8F4
:1015700030B50B46014600202022012409E021FA63
:1015800002F59D4205D303FA02F5491B04FA02F560
:101590002844151EA2F10102F1DC30BD2DE9F05FF7
:1015A0000546002092469B468846064681464024D2
:1015B0001BE0284641464746224600F02FF8534696
:1015C0005A46C01A914110D311461846224600F0DF
:1015D00016F82D1A67EB01084F462246012000211C
:1015E00000F00DF817EB00094E41201EA4F1010494
:1015F000DFDC484631462A464346BDE8F09F202AB4
:1016000004DB203A00FA02F1002070479140C2F159
:10161000200320FA03F3194390407047202A04DB8B
:10162000203A21FA02F00021704721FA02F3D0405B
:10163000C2F120029140084319467047202A06DB78
:10164000CB17203A41FA02F043EAE07306E041FA90
:1016500002F3D040C2F1200291400843194670477E
:101660000029A8BF7047401C490008BF20F00100B6
:10167000704710B4B0FA80FC00FA0CF050EA010494
:1016800004BF10BC704749B1CCF1200421FA04F426
:1016900011FA0CF118BF012121430843A3EB0C01FF
:1016A000CB1D4FEA00614FEA102042BF002010BC62
:1016B000704700EBC35010440029A4BF10BC704712
:1016C000401C490008BF20F0010010BC704710B555
:1016D000141E73F1000408DA401C41F10001921855
:1016E0005B411A4301D120F0010010BD2DE9F04DFE
:1016F00092469B4611B1B1FA81F202E0B0FA80F253
:1017000020329046FFF77BFF04460F4640EA0A006E
:1017100041EA0B0153465A46084313D0114653EA97
:10172000010019D0C8F140025046FFF777FF054687
:101730000E46504659464246FFF761FF084305D022
:10174000012004E020463946BDE8F08D0020054325
:1017500046EAE0762C4337430A986305E40AA0EB97
:1017600008000022FD0A44EA47540A3002D500204E
:101770000146E9E7010510196941DDE9084500194D
:101780006941BDE8F04DA2E7C1F30A52C1F313016C
:1017900040F2FF3341F480119A4202DA0020014600
:1017A000704740F233439A42A2F2334202DC524283
:1017B000FFF734BFFFF723BF064C074D06E0E06894
:1017C00040F0010394E8070098471034AC42F6D388
:1017D000FEF73EFD1C5F01083C5F010870B58D18E7
:1017E00010F8014B14F0030201D110F8012B231162
:1017F00006D110F8013B03E010F8016B01F8016B12
:10180000521EF9D1ABB110F8012B04F00C048A1A66
:101810000C2C03D0A2EB84129B1C08E010F8014BA7
:10182000A2EB0422F8E712F8014B01F8014B5B1E12
:10183000F9D5A942D4D3002070BD00001448006837
:1018400040F47000124908601248006840F001003E
:101850001049086000200F49083108600D480068F1
:101860000D4908400B4908600C48091D0860081F15
:10187000006820F48020091F0860002005490C3111
:1018800008604FF00060024980390860704700002E
:1018900088ED00E000380240FFFFF6FE1030002423
:1018A0000FB4054B10B503A9044A029800F0CAF81A
:1018B00010BC5DF814FB000075210008BC0200207C
:1018C00002E008C8121F08C1002AFAD17047704709
:1018D000002001E001C1121F002AFBD17047000067
:1018E0002DE9FF5FDDE90220010DDDF838B002438C
:1018F00018D044F61050A1F2FF3141430D140F9857
:10190000012820D0A5EB0B00401C5FEA000A4FF035
:101910000004474EDFF81C91A046504616D5CAF188
:10192000000728E00F98012443A2012808D00021D5
:1019300000980F9BC0E90021C0E90243BDE8FF9F6A
:101940006FEA0B01F4E7CBF10000DEE7074612E097
:10195000F80707D02246334640464946FFF7CFFCFA
:10196000804689462246334610461946FFF7C7FC93
:1019700004460E467F10002FEAD1DDE90201BAF1DC
:10198000000F42464B4602DAFFF7B9FC01E0FFF7D1
:1019900028FD04460E460022284BFFF7B5FD03D86C
:1019A0004FF0FF30014607E00022254B204631462C
:1019B000FFF7FEFBFFF7E8FE102409E0002C0ADB2E
:1019C0000A220023FFF7EAFD019B30321A55641EFC
:1019D00050EA0102F2D1641C019AC4F111031444CB
:1019E0000F9A012A03D0012208430DD10AE00843CF
:1019F00004D000204FF0110B0F9080E7A3EB0B05F4
:101A00006D1E0DE05B4504DD4FF0000205F10105A0
:101A100004E003DA4FF00002A5F10105002AECD042
:101A200000980F99C0E90231C0E9004586E700003F
:101A3000000024400000F03F300000000000F043B0
:101A40000000E03F2DE9FF4F95B09B4689460646D2
:101A500000250FE2252877D100242746F84A0121E6
:101A6000059400E0044316F8013F203B01FA03F01F
:101A70001042F7D130782A2811D06FF02F03307838
:101A8000A0F13002092A16D8059A44F0020402EBAC
:101A9000820203EB42021044761C0590EFE759F8EE
:101AA000042B0592002A03DA504244F400540590B6
:101AB00044F00204761C30782E2816D116F8010F57
:101AC00044F004042A280DD06FF02F023078A0F1E2
:101AD0003003092B09D807EB870302EB4303C71830
:101AE000761CF3E759F8047B761C30786C280FD00D
:101AF00006DC4C2817D068280DD06A2814D104E0E1
:101B0000742810D07A280FD10DE044F400140AE0B4
:101B100044F4801401E044F440147278824202D10B
:101B200004F58014761C761C307866280BD013DC04
:101B3000582877D009DC002875D04528F6D04628EB
:101B4000F4D047281AD19DE118E0632835D06428E5
:101B500079D0652812D195E1702873D008DC672808
:101B6000F1D069286FD06E280DD06F2806D1B5E06E
:101B700073282CD0752875D0782874D05A461799B8
:101B800090476D1C75E1C4F30250022809D0032868
:101B90000DD0D9F8001004280DD00D6009F104090A
:101BA00067E1D9F80010EA17C1E90052F6E7D9F861
:101BB00000100D80F2E70D70F0E719F8041B8DF8A6
:101BC000001000208DF80100EA46012003E059F8DA
:101BD00004AB4FF0FF3061074FF0000102D40DE07D
:101BE00008F101018846B9420FDA8045F8DB1AF89E
:101BF00008100029F4D108E008F10101884681426B
:101C0000FADB1AF808100029F6D105985B46A0EB1C
:101C1000080721463846179A00F094FA284400EB4A
:101C2000080507E04DE029E10DE01AF8010B5A46DE
:101C300017999047B8F10108F7D25B46214638461C
:101C4000179A13E142E00A220092C4F302524FF0C5
:101C5000000A022A08D059F804CB032A4FEAEC7193
:101C60000AD00DE029E02AE009F1070121F007027E
:101C7000F2E802C1914609E00FFA8CFC4FEAEC71E0
:101C8000042A03D14FFA8CFC4FEAEC71002907DAE1
:101C90000A460021DCF1000C61EB02012D2202E07A
:101CA000220504D52B228DF80420012203E0E2074F
:101CB00001D02022F7E7904659E00A2102E01022E5
:101CC0000DE010214FF0000A00910BE010224FF0C0
:101CD000000A44F004040827009203E008224FF0B1
:101CE000000A0092C4F30252022A05D059F804CB2C
:101CF0000021032A08D009E009F1070121F00702B9
:101D0000F2E802C1914605E01FFA8CFC042A01D1D9
:101D10000CF0FF0C4FF00008220728D5702806D0E1
:101D2000009B83F0100353EA0A0305D00EE0402223
:101D30008DF80420012208E05CEA010206D030227E
:101D40008DF804208DF8050002229046009B83F058
:101D5000080353EA0A030AD15CEA010201D16207CF
:101D600005D530228DF804204FF001087F1E582839
:101D700004D034A003900EA802900DE036A0F9E73D
:101D800053466046009AFFF709FC84460398825C3C
:101D90000298401E029002705CEA0100F0D10298A5
:101DA00006A9081A00F1200A600702D524F480343D
:101DB00000E00127574502DDA7EB0A0000E0002004
:101DC00000EB0A01009005984144401A0590E00399
:101DD00006D45B462146179A059800F0B3F90544EE
:101DE000002706E001A85A46C05D179990476D1C70
:101DF0007F1C4745F6DBE0030CD55B462146179A6E
:101E0000059800F09FF9054404E030205A461799E0
:101E100090476D1C0099481E00900029F5DC08E0F1
:101E2000029802995A460078491C029117999047E6
:101E30006D1CBAF10001AAF1010AF1DC65E10000B4
:101E40000928010030313233343536373839616290
:101E50006364656600000000303132333435363754
:101E600038394142434445460000000000F058F92B
:101E70000544761C307800287FF4ECAD19B0284674
:101E8000BDE8F08F620700D4062709F1070222F0AF
:101E9000070CFCE80223E14603F000485FEA080C67
:101EA00002D00FF2702C0DE05FEA045C02D50FF255
:101EB000682C07E05FEAC47C02D00FF2602C01E0DE
:101EC000AFF2700C4FF0FF3823F00043CDF850C054
:101ED00065280CD006DC452809D046281DD04728A7
:101EE0003DD13DE0662818D067287ED138E000213A
:101EF000112F01DB112000E0781CCDE9000106A9BB
:101F00000EA8FFF7EDFCDDE90F010E9A0391002109
:101F1000009207F1010A04914DE04FF00040009754
:101F2000CDE9011006A90EA8FFF7DAFCDDE90F02E2
:101F300003920E9B11990022DDF80CA000930492ED
:101F400011B9791C00EB010AB7EB0A0004D4C0F107
:101F5000FF3007F1010A0490AAEB0700019044E06A
:101F6000012F00DA01270021112F01DD112000E0EF
:101F70003846CDE9000106A90EA8FFF7B1FCDDE95E
:101F80000F010E9A0391002104910092BA46210795
:101F90000CD40399514500DA8A46BAF1010F05DDE8
:101FA000009AAAF10101515C302908D0B84202DA46
:101FB00010F1040F06DA0121CDE9011015E0AAF1B4
:101FC0000101E9E7002805DC049901440491AAEB2A
:101FD000000102E0411C514500DD8A460499401A87
:101FE000401C01904FF000400290200704D401985B
:101FF000504501DBCDF8048000208DF84F00029899
:102000000DF14F07B0F1004F25D02B200E90029814
:102010004FF0020800280CDA404202902D200E906A
:1020200007E00A210298FFF7A3FA3031029007F87F
:10203000011DB8F10001A8F10108F2DC02980028A6
:10204000EFD1791E0E980870307800F0200040F033
:10205000450007F8020D12A8C01B00F107081498EC
:10206000007800B1012000EB0A01019801EBE0715A
:1020700005984144401A401E0590E00306D45B4693
:102080002146179A059800F05DF8054414980078E9
:1020900018B15A46179990476D1CE00324D55B464A
:1020A0002146179A059800F04DF805441CE0049865
:1020B000002807DBDDE90301884203DD0098405C6E
:1020C000179901E0179930205A469047049805F176
:1020D0000105401C04900198401E019004D12E205F
:1020E0005A46179990476D1CBAF10001AAF1010AEE
:1020F000DDDC05E017F8010B5A46179990476D1C77
:10210000B8F10001A8F10108F4DC5B462146179AFA
:102110000598ABE62D0000002B0000002000000019
:102120002DE9F041044600251E461746880404D4D4
:1021300005E039462020B0476D1C641EF9D52846BD
:10214000BDE8F0812DE9F041044600251E46904689
:10215000C80301D5302700E02027880404D505E016
:1021600041463846B0476D1C641EF9D52846BDE887
:10217000F0810000074A126802F0807242B100BF8D
:102180004FF060421268002AFAD04FF06043187096
:1021900070470000FCED00E02DED088B002434E0DA
:1021A0002046FFF78DF941EC1B0B9FED320B53ECF2
:1021B000102BFFF716F941EC1A0B9FED300B53EC87
:1021C000102BFFF79CF841EC190B9FED2E0B53ECF5
:1021D000102BFFF794F841EC180B9FED2C0B53ECF0
:1021E000102B51EC180BFFF78AF841EC1A0BFFF794
:1021F000A3F909EE100AB0EE490AFEF741F82548A6
:1022000000EB840080ED000A641CB4F5006FC7DBAE
:102210004FF400612048FEF737F900231F4A1D499B
:102220001D48FEF70FF901231D4A1C491A48FEF705
:1022300009F91CA0FFF734FB002412E0184800EB5A
:10224000840090ED000A10EE101A0846FFF749F9D5
:1022500041EC190B53EC192B214615A0FFF720FB7D
:10226000641CB4F5006FE9DB14A0FFF719FB00BF95
:10227000FEE70000000000000000A0400000000099
:102280000000004000000060FB2109400000000049
:1022900000005940C4020020C4620020C442002053
:1022A000C422002020736967203D205B00000000ED
:1022B0002028256929202566000000005D00000017
:1022C0000000803F000000005E836C3F15EFC33EBE
:1022D000F304353FF304353F15EFC33E5E836C3F97
:1022E000000000000000803F15EFC3BE5E836C3F1E
:1022F000F30435BFF304353F5E836CBF15EFC33E77
:10230000000080BF000000005E836CBF15EFC3BEFD
:10231000F30435BFF30435BF15EFC3BE5E836CBF56
:1023200000000080000080BF15EFC33E5E836CBFDD
:10233000F304353FF30435BF5E836C3F15EFC3BE36
:102340000000803F00000000BE147B3FC2C5473E36
:102350005E836C3F15EFC33E31DB543FDA390E3FED
:10236000F304353FF304353FDA390E3F31DB543F98
:1023700015EFC33E5E836C3FC2C5473EBE147B3F34
:10238000000000000000803FC2C547BEBE147B3F76
:1023900015EFC3BE5E836C3FDA390EBF31DB543FAD
:1023A000F30435BFF304353F31DB54BFDA390E3F58
:1023B0005E836CBF15EFC33EBE147BBFC2C5473EF4
:1023C000000080BF00000000BE147BBFC2C547BE36
:1023D0005E836CBF15EFC3BE31DB54BFDA390EBF6D
:1023E000F30435BFF30435BFDA390EBF31DB54BF18
:1023F00015EFC3BE5E836CBFC2C547BEBE147BBFB4
:1024000000000080000080BFC2C5473EBE147BBFF5
:1024100015EFC33E5E836CBFDA390E3F31DB54BF2C
:10242000F304353FF30435BF31DB543FDA390EBFD7
:102430005E836C3F15EFC3BEBE147B3FC2C547BE73
:102440000000803F000000006DC47E3F36BDC83DE7
:10245000BE147B3FC2C5473E0BFA743F31A0943E89
:102460005E836C3F15EFC33E98C5613FEA5AF13E6B
:1024700031DB543FDA390E3F03E4453F9967223F91
:10248000F304353FF304353F9967223F03E4453FAA
:10249000DA390E3F31DB543FEA5AF13E98C5613FCD
:1024A00015EFC33E5E836C3F31A0943E0BFA743F40
:1024B000C2C5473EBE147B3F36BDC83D6DC47E3F9E
:1024C000000000000000803F36BDC8BD6DC47E3FE7
:1024D000C2C547BEBE147B3F31A094BE0BFA743F09
:1024E00015EFC3BE5E836C3FEA5AF1BE98C5613FEB
:1024F000DA390EBF31DB543F996722BF03E4453F11
:10250000F30435BFF304353F03E445BF9967223F29
:1025100031DB54BFDA390E3F98C561BFEA5AF13E4C
:102520005E836CBF15EFC33E0BFA74BF31A0943EBF
:10253000BE147BBFC2C5473E6DC47EBF36BDC83D1D
:10254000000080BF000000006DC47EBF36BDC8BD66
:10255000BE147BBFC2C547BE0BFA74BF31A094BE88
:102560005E836CBF15EFC3BE98C561BFEA5AF1BE6A
:1025700031DB54BFDA390EBF03E445BF996722BF90
:10258000F30435BFF30435BF996722BF03E445BFA9
:10259000DA390EBF31DB54BFEA5AF1BE98C561BFCC
:1025A00015EFC3BE5E836CBF31A094BE0BFA74BF3F
:1025B000C2C547BEBE147BBF36BDC8BD6DC47EBF9D
:1025C00000000080000080BF36BDC83D6DC47EBFE6
:1025D000C2C5473EBE147BBF31A0943E0BFA74BF08
:1025E00015EFC33E5E836CBFEA5AF13E98C561BFEA
:1025F000DA390E3F31DB54BF9967223F03E445BF10
:10260000F304353FF30435BF03E4453F996722BF28
:1026100031DB543FDA390EBF98C5613FEA5AF1BE4B
:102620005E836C3F15EFC3BE0BFA743F31A094BEBE
:10263000BE147B3FC2C547BE6DC47E3F36BDC8BD1C
:102640000000803F000000000FB17F3F2FFB483D9E
:102650006DC47E3F36BDC83DAC3A7D3F8340163EDB
:10266000BE147B3FC2C5473EF853783FCCCF783E7F
:102670000BFA743F31A0943E0809713FD47CAC3E04
:102680005E836C3F15EFC33ED86B673F80E8DA3E50
:1026900098C5613FEA5AF13E1A945B3F3D9C033F67
:1026A00031DB543FDA390E3F029F4D3FC07F183F68
:1026B00003E4453F9967223FF9AE3D3F4AEB2B3F8C
:1026C000F304353FF304353F4AEB2B3FF9AE3D3F72
:1026D0009967223F03E4453FC07F183F029F4D3F6B
:1026E000DA390E3F31DB543F3D9C033F1A945B3F88
:1026F000EA5AF13E98C5613F80E8DA3ED86B673F01
:1027000015EFC33E5E836C3FD47CAC3E0809713F3D
:1027100031A0943E0BFA743FCCCF783EF853783F0B
:10272000C2C5473EBE147B3F8340163EAC3A7D3F58
:1027300036BDC83D6DC47E3F2FFB483D0FB17F3F86
:10274000000000000000803F2FFB48BD0FB17F3F1D
:1027500036BDC8BD6DC47E3F834016BEAC3A7D3FDA
:10276000C2C547BEBE147B3FCCCF78BEF853783F7E
:1027700031A094BE0BFA743FD47CACBE0809713F03
:1027800015EFC3BE5E836C3F80E8DABED86B673F4F
:10279000EA5AF1BE98C5613F3D9C03BF1A945B3F66
:1027A000DA390EBF31DB543FC07F18BF029F4D3F67
:1027B000996722BF03E4453F4AEB2BBFF9AE3D3F8B
:1027C000F30435BFF304353FF9AE3DBF4AEB2B3F71
:1027D00003E445BF9967223F029F4DBFC07F183F6A
:1027E00031DB54BFDA390E3F1A945BBF3D9C033F87
:1027F00098C561BFEA5AF13ED86B67BF80E8DA3E00
:102800005E836CBF15EFC33E080971BFD47CAC3E3C
:102810000BFA74BF31A0943EF85378BFCCCF783E0A
:10282000BE147BBFC2C5473EAC3A7DBF8340163E57
:102830006DC47EBF36BDC83D0FB17FBF2FFB483D85
:10284000000080BF000000000FB17FBF2FFB48BD1C
:102850006DC47EBF36BDC8BDAC3A7DBF834016BED9
:10286000BE147BBFC2C547BEF85378BFCCCF78BE7D
:102870000BFA74BF31A094BE080971BFD47CACBE02
:102880005E836CBF15EFC3BED86B67BF80E8DABE4E
:1028900098C561BFEA5AF1BE1A945BBF3D9C03BF65
:1028A00031DB54BFDA390EBF029F4DBFC07F18BF66
:1028B00003E445BF996722BFF9AE3DBF4AEB2BBF8A
:1028C000F30435BFF30435BF4AEB2BBFF9AE3DBF70
:1028D000996722BF03E445BFC07F18BF029F4DBF69
:1028E000DA390EBF31DB54BF3D9C03BF1A945BBF86
:1028F000EA5AF1BE98C561BF80E8DABED86B67BFFF
:1029000015EFC3BE5E836CBFD47CACBE080971BF3B
:1029100031A094BE0BFA74BFCCCF78BEF85378BF09
:10292000C2C547BEBE147BBF834016BEAC3A7DBF56
:1029300036BDC8BD6DC47EBF2FFB48BD0FB17FBF84
:1029400000000080000080BF2FFB483D0FB17FBF1B
:1029500036BDC83D6DC47EBF8340163EAC3A7DBFD8
:10296000C2C5473EBE147BBFCCCF783EF85378BF7C
:1029700031A0943E0BFA74BFD47CAC3E080971BF01
:1029800015EFC33E5E836CBF80E8DA3ED86B67BF4D
:10299000EA5AF13E98C561BF3D9C033F1A945BBF64
:1029A000DA390E3F31DB54BFC07F183F029F4DBF65
:1029B0009967223F03E445BF4AEB2B3FF9AE3DBF89
:1029C000F304353FF30435BFF9AE3D3F4AEB2BBF6F
:1029D00003E4453F996722BF029F4D3FC07F18BF68
:1029E00031DB543FDA390EBF1A945B3F3D9C03BF85
:1029F00098C5613FEA5AF1BED86B673F80E8DABEFE
:102A00005E836C3F15EFC3BE0809713FD47CACBE3A
:102A10000BFA743F31A094BEF853783FCCCF78BE08
:102A2000BE147B3FC2C547BEAC3A7D3F834016BE55
:102A30006DC47E3F36BDC8BD0FB17F3F2FFB48BD83
:102A40000000803F0000000043EC7F3FB00AC93C1B
:102A50000FB17F3F2FFB483D6D4E7F3F05A9963D4F
:102A60006DC47E3F36BDC83D24137E3F73B2FA3D30
:102A7000AC3A7D3F8340163E283B7C3FA2102F3E60
:102A8000BE147B3FC2C5473E9DC7793F135C603E85
:102A9000F853783FCCCF783E07BA763F938E883E86
:102AA0000BFA743F31A0943E4714733FE59AA03E61
:102AB0000809713FD47CAC3E9ED86E3F2A44B83E94
:102AC0005E836C3F15EFC33EA7096A3FCA7BCF3ECA
:102AD000D86B673F80E8DA3E59AA643F7533E63E1B
:102AE00098C5613FEA5AF13E05BE5E3F275DFC3E58
:102AF0001A945B3F3D9C033F5348583F9BF5083F6A
:102B000031DB543FDA390E3F3D4D513F2A68133FC8
:102B1000029F4D3FC07F183F12D1493FD17F1D3FDB
:102B200003E4453F9967223F70D8413F5636273F1F
:102B3000F9AE3D3F4AEB2B3F4268393FBB85303F02
:102B4000F304353FF304353FBB85303F4268393FDE
:102B50004AEB2B3FF9AE3D3F5636273F70D8413FF9
:102B60009967223F03E4453FD17F1D3F12D1493F82
:102B7000C07F183F029F4D3F2A68133F3D4D513F94
:102B8000DA390E3F31DB543F9BF5083F5348583F3D
:102B90003D9C033F1A945B3F275DFC3E05BE5E3FB4
:102BA000EA5AF13E98C5613F7533E63E59AA643F43
:102BB00080E8DA3ED86B673FCA7BCF3EA7096A3F01
:102BC00015EFC33E5E836C3F2A44B83E9ED86E3FED
:102BD000D47CAC3E0809713FE59AA03E4714733F90
:102BE00031A0943E0BFA743F938E883E07BA763F2D
:102BF000CCCF783EF853783F135C603E9DC7793F59
:102C0000C2C5473EBE147B3FA2102F3E283B7C3FEF
:102C10008340163EAC3A7D3F73B2FA3D24137E3FAB
:102C200036BDC83D6DC47E3F05A9963D6D4E7F3FC4
:102C30002FFB483D0FB17F3FB00AC93C43EC7F3FBB
:102C4000000000000000803FB00AC9BC43EC7F3F99
:102C50002FFB48BD0FB17F3F05A996BD6D4E7F3F4D
:102C600036BDC8BD6DC47E3F73B2FABD24137E3F2E
:102C7000834016BEAC3A7D3FA2102FBE283B7C3F5E
:102C8000C2C547BEBE147B3F135C60BE9DC7793F83
:102C9000CCCF78BEF853783F938E88BE07BA763F84
:102CA00031A094BE0BFA743FE59AA0BE4714733F5F
:102CB000D47CACBE0809713F2A44B8BE9ED86E3F92
:102CC00015EFC3BE5E836C3FCA7BCFBEA7096A3FC8
:102CD00080E8DABED86B673F7533E6BE59AA643F19
:102CE000EA5AF1BE98C5613F275DFCBE05BE5E3F56
:102CF0003D9C03BF1A945B3F9BF508BF5348583F68
:102D0000DA390EBF31DB543F2A6813BF3D4D513FC6
:102D1000C07F18BF029F4D3FD17F1DBF12D1493FD9
:102D2000996722BF03E4453F563627BF70D8413F1D
:102D30004AEB2BBFF9AE3D3FBB8530BF4268393F00
:102D4000F30435BFF304353F426839BFBB85303FDC
:102D5000F9AE3DBF4AEB2B3F70D841BF5636273FF7
:102D600003E445BF9967223F12D149BFD17F1D3F80
:102D7000029F4DBFC07F183F3D4D51BF2A68133F92
:102D800031DB54BFDA390E3F534858BF9BF5083F3B
:102D90001A945BBF3D9C033F05BE5EBF275DFC3EB2
:102DA00098C561BFEA5AF13E59AA64BF7533E63E41
:102DB000D86B67BF80E8DA3EA7096ABFCA7BCF3EFF
:102DC0005E836CBF15EFC33E9ED86EBF2A44B83EEB
:102DD000080971BFD47CAC3E471473BFE59AA03E8E
:102DE0000BFA74BF31A0943E07BA76BF938E883E2B
:102DF000F85378BFCCCF783E9DC779BF135C603E57
:102E0000BE147BBFC2C5473E283B7CBFA2102F3EED
:102E1000AC3A7DBF8340163E24137EBF73B2FA3DA9
:102E20006DC47EBF36BDC83D6D4E7FBF05A9963DC2
:102E30000FB17FBF2FFB483D43EC7FBFB00AC93CB9
:102E4000000080BF0000000043EC7FBFB00AC9BC97
:102E50000FB17FBF2FFB48BD6D4E7FBF05A996BD4B
:102E60006DC47EBF36BDC8BD24137EBF73B2FABD2C
:102E7000AC3A7DBF834016BE283B7CBFA2102FBE5C
:102E8000BE147BBFC2C547BE9DC779BF135C60BE81
:102E9000F85378BFCCCF78BE07BA76BF938E88BE82
:102EA0000BFA74BF31A094BE471473BFE59AA0BE5D
:102EB000080971BFD47CACBE9ED86EBF2A44B8BE90
:102EC0005E836CBF15EFC3BEA7096ABFCA7BCFBEC6
:102ED000D86B67BF80E8DABE59AA64BF7533E6BE17
:102EE00098C561BFEA5AF1BE05BE5EBF275DFCBE54
:102EF0001A945BBF3D9C03BF534858BF9BF508BF66
:102F000031DB54BFDA390EBF3D4D51BF2A6813BFC4
:102F1000029F4DBFC07F18BF12D149BFD17F1DBFD7
:102F200003E445BF996722BF70D841BF563627BF1B
:102F3000F9AE3DBF4AEB2BBF426839BFBB8530BFFE
:102F4000F30435BFF30435BFBB8530BF426839BFDA
:102F50004AEB2BBFF9AE3DBF563627BF70D841BFF5
:102F6000996722BF03E445BFD17F1DBF12D149BF7E
:102F7000C07F18BF029F4DBF2A6813BF3D4D51BF90
:102F8000DA390EBF31DB54BF9BF508BF534858BF39
:102F90003D9C03BF1A945BBF275DFCBE05BE5EBFB0
:102FA000EA5AF1BE98C561BF7533E6BE59AA64BF3F
:102FB00080E8DABED86B67BFCA7BCFBEA7096ABFFD
:102FC00015EFC3BE5E836CBF2A44B8BE9ED86EBFE9
:102FD000D47CACBE080971BFE59AA0BE471473BF8C
:102FE00031A094BE0BFA74BF938E88BE07BA76BF29
:102FF000CCCF78BEF85378BF135C60BE9DC779BF55
:10300000C2C547BEBE147BBFA2102FBE283B7CBFEB
:10301000834016BEAC3A7DBF73B2FABD24137EBFA7
:1030200036BDC8BD6DC47EBF05A996BD6D4E7FBFC0
:103030002FFB48BD0FB17FBFB00AC9BC43EC7FBFB7
:1030400000000080000080BFB00AC93C43EC7FBF95
:103050002FFB483D0FB17FBF05A9963D6D4E7FBF49
:1030600036BDC83D6DC47EBF73B2FA3D24137EBF2A
:103070008340163EAC3A7DBFA2102F3E283B7CBF5A
:10308000C2C5473EBE147BBF135C603E9DC779BF7F
:10309000CCCF783EF85378BF938E883E07BA76BF80
:1030A00031A0943E0BFA74BFE59AA03E471473BF5B
:1030B000D47CAC3E080971BF2A44B83E9ED86EBF8E
:1030C00015EFC33E5E836CBFCA7BCF3EA7096ABFC4
:1030D00080E8DA3ED86B67BF7533E63E59AA64BF15
:1030E000EA5AF13E98C561BF275DFC3E05BE5EBF52
:1030F0003D9C033F1A945BBF9BF5083F534858BF64
:10310000DA390E3F31DB54BF2A68133F3D4D51BFC2
:10311000C07F183F029F4DBFD17F1D3F12D149BFD5
:103120009967223F03E445BF5636273F70D841BF19
:103130004AEB2B3FF9AE3DBFBB85303F426839BFFC
:10314000F304353FF30435BF4268393FBB8530BFD8
:10315000F9AE3D3F4AEB2BBF70D8413F563627BFF3
:1031600003E4453F996722BF12D1493FD17F1DBF7C
:10317000029F4D3FC07F18BF3D4D513F2A6813BF8E
:1031800031DB543FDA390EBF5348583F9BF508BF37
:103190001A945B3F3D9C03BF05BE5E3F275DFCBEAE
:1031A00098C5613FEA5AF1BE59AA643F7533E6BE3D
:1031B000D86B673F80E8DABEA7096A3FCA7BCFBEFB
:1031C0005E836C3F15EFC3BE9ED86E3F2A44B8BEE7
:1031D0000809713FD47CACBE4714733FE59AA0BE8A
:1031E0000BFA743F31A094BE07BA763F938E88BE27
:1031F000F853783FCCCF78BE9DC7793F135C60BE53
:10320000BE147B3FC2C547BE283B7C3FA2102FBEE9
:10321000AC3A7D3F834016BE24137E3F73B2FABDA5
:103220006DC47E3F36BDC8BD6D4E7F3F05A996BDBE
:103230000FB17F3F2FFB48BD43EC7F3FB00AC9BCB5
:103240000000803F0000000011FB7F3F900E493CD2
:1032500043EC7F3FB00AC93C98D37F3F2CC3163D57
:103260000FB17F3F2FFB483DAB847F3F742B7B3DED
:103270006D4E7F3F05A9963D580E7F3F80B6AF3D0E
:103280006DC47E3F36BDC83DB0707E3F2EBCE13D73
:1032900024137E3F73B2FA3DCCAB7D3F86CF093E0F
:1032A000AC3A7D3F8340163EC9BF7C3FB6AB223E61
:1032B000283B7C3FA2102F3ECDAC7B3FCF6E3B3EE8
:1032C000BE147B3FC2C5473E02737A3F0115543E90
:1032D0009DC7793F135C603E9812793F7F9A6C3EA0
:1032E000F853783FCCCF783EC58B773FC07D823E88
:1032F00007BA763F938E883EC6DE753F229A8E3E91
:103300000BFA743F31A0943EDD0B743F86A09A3EC9
:103310004714733FE59AA03E5213723F128FA63EA8
:103320000809713FD47CAC3E73F56F3FEF63B23E4A
:103330009ED86E3F2A44B83E93B26D3F4A1DBE3EB2
:103340005E836C3F15EFC33E0C4B6B3F53B9C93ED8
:10335000A7096A3FCA7BCF3E3CBF683F4136D53E96
:10336000D86B673F80E8DA3E880F663F4F92E03EB9
:1033700059AA643F7533E63E5A3C633FBBCBEB3EF4
:1033800098C5613FEA5AF13E2146603FCBE0F63EE8
:1033900005BE5E3F275DFC3E532D5D3FE4E7003FE9
:1033A0001A945B3F3D9C033F6AF2593F824B063FB4
:1033B0005348583F9BF5083FE595563F6B9A0B3FA6
:1033C00031DB543FDA390E3F4918533FCDD3103F1C
:1033D0003D4D513F2A68133F1F7A4F3FD9F6153FA5
:1033E000029F4D3FC07F183FF8BB4B3FC6021B3FBB
:1033F00012D1493FD17F1D3F65DE473FCBF61F3FCE
:1034000003E4453F9967223F00E2433F25D2243F32
:1034100070D8413F5636273F67C73F3F1594293F35
:10342000F9AE3D3F4AEB2B3F3B8F3B3FDE3B2E3F10
:103430004268393FBB85303F233A373FC9C8323FE6
:10344000F304353FF304353FC9C8323F233A373FD1
:10345000BB85303F4268393FDE3B2E3F3B8F3B3FD1
:103460004AEB2B3FF9AE3D3F1594293F67C73F3FDD
:103470005636273F70D8413F25D2243F00E2433FD4
:103480009967223F03E4453FCBF61F3F65DE473F88
:10349000D17F1D3F12D1493FC6021B3FF8BB4B3FB6
:1034A000C07F183F029F4D3FD9F6153F1F7A4F3F0F
:1034B0002A68133F3D4D513FCDD3103F4918533F2C
:1034C000DA390E3F31DB543F6B9A0B3FE595563F9F
:1034D0009BF5083F5348583F824B063F6AF2593FDD
:1034E0003D9C033F1A945B3FE4E7003F532D5D3F53
:1034F000275DFC3E05BE5E3FCBE0F63E2146603FC9
:10350000EA5AF13E98C5613FBBCBEB3E5A3C633F64
:103510007533E63E59AA643F4F92E03E880F663FFE
:1035200080E8DA3ED86B673F4136D53E3CBF683F06
:10353000CA7BCF3EA7096A3F53B9C93E0C4B6B3FCC
:1035400015EFC33E5E836C3F4A1DBE3E93B26D3F96
:103550002A44B83E9ED86E3FEF63B23E73F56F3F8C
:10356000D47CAC3E0809713F128FA63E5213723FC5
:10357000E59AA03E4714733F86A09A3EDD0B743F48
:1035800031A0943E0BFA743F229A8E3EC6DE753F00
:10359000938E883E07BA763FC07D823EC58B773FCB
:1035A000CCCF783EF853783F7F9A6C3E9812793FA3
:1035B000135C603E9DC7793F0115543E02737A3F0C
:1035C000C2C5473EBE147B3FCF6E3B3ECDAC7B3F7A
:1035D000A2102F3E283B7C3FB6AB223EC9BF7C3FAA
:1035E0008340163EAC3A7D3F86CF093ECCAB7D3F53
:1035F00073B2FA3D24137E3F2EBCE13DB0707E3F96
:1036000036BDC83D6DC47E3F80B6AF3D580E7F3F8E
:1036100005A9963D6D4E7F3F742B7B3DAB847F3F6C
:103620002FFB483D0FB17F3F2CC3163D98D37F3F02
:10363000B00AC93C43EC7F3F900E493C11FB7F3FF1
:10364000000000000000803F900E49BC11FB7F3F4E
:10365000B00AC9BC43EC7F3F2CC316BD98D37F3F53
:103660002FFB48BD0FB17F3F742B7BBDAB847F3FE9
:1036700005A996BD6D4E7F3F80B6AFBD580E7F3F0A
:1036800036BDC8BD6DC47E3F2EBCE1BDB0707E3F6F
:1036900073B2FABD24137E3F86CF09BECCAB7D3F0B
:1036A000834016BEAC3A7D3FB6AB22BEC9BF7C3F5D
:1036B000A2102FBE283B7C3FCF6E3BBECDAC7B3FE4
:1036C000C2C547BEBE147B3F011554BE02737A3F8C
:1036D000135C60BE9DC7793F7F9A6CBE9812793F9C
:1036E000CCCF78BEF853783FC07D82BEC58B773F84
:1036F000938E88BE07BA763F229A8EBEC6DE753F8D
:1037000031A094BE0BFA743F86A09ABEDD0B743FC5
:10371000E59AA0BE4714733F128FA6BE5213723FA4
:10372000D47CACBE0809713FEF63B2BE73F56F3F46
:103730002A44B8BE9ED86E3F4A1DBEBE93B26D3FAE
:1037400015EFC3BE5E836C3F53B9C9BE0C4B6B3FD4
:10375000CA7BCFBEA7096A3F4136D5BE3CBF683F92
:1037600080E8DABED86B673F4F92E0BE880F663FB5
:103770007533E6BE59AA643FBBCBEBBE5A3C633FF0
:10378000EA5AF1BE98C5613FCBE0F6BE2146603FE4
:10379000275DFCBE05BE5E3FE4E700BF532D5D3FE5
:1037A0003D9C03BF1A945B3F824B06BF6AF2593FB0
:1037B0009BF508BF5348583F6B9A0BBFE595563FA2
:1037C000DA390EBF31DB543FCDD310BF4918533F18
:1037D0002A6813BF3D4D513FD9F615BF1F7A4F3FA1
:1037E000C07F18BF029F4D3FC6021BBFF8BB4B3FB7
:1037F000D17F1DBF12D1493FCBF61FBF65DE473FCA
:10380000996722BF03E4453F25D224BF00E2433F2E
:10381000563627BF70D8413F159429BF67C73F3F31
:103820004AEB2BBFF9AE3D3FDE3B2EBF3B8F3B3F0C
:10383000BB8530BF4268393FC9C832BF233A373FE2
:10384000F30435BFF304353F233A37BFC9C8323FCD
:10385000426839BFBB85303F3B8F3BBFDE3B2E3FCD
:10386000F9AE3DBF4AEB2B3F67C73FBF1594293FD9
:1038700070D841BF5636273F00E243BF25D2243FD0
:1038800003E445BF9967223F65DE47BFCBF61F3F84
:1038900012D149BFD17F1D3FF8BB4BBFC6021B3FB2
:1038A000029F4DBFC07F183F1F7A4FBFD9F6153F0B
:1038B0003D4D51BF2A68133F491853BFCDD3103F28
:1038C00031DB54BFDA390E3FE59556BF6B9A0B3F9B
:1038D000534858BF9BF5083F6AF259BF824B063FD9
:1038E0001A945BBF3D9C033F532D5DBFE4E7003F4F
:1038F00005BE5EBF275DFC3E214660BFCBE0F63EC5
:1039000098C561BFEA5AF13E5A3C63BFBBCBEB3E60
:1039100059AA64BF7533E63E880F66BF4F92E03EFA
:10392000D86B67BF80E8DA3E3CBF68BF4136D53E02
:10393000A7096ABFCA7BCF3E0C4B6BBF53B9C93EC8
:103940005E836CBF15EFC33E93B26DBF4A1DBE3E92
:103950009ED86EBF2A44B83E73F56FBFEF63B23E88
:10396000080971BFD47CAC3E521372BF128FA63EC1
:10397000471473BFE59AA03EDD0B74BF86A09A3E44
:103980000BFA74BF31A0943EC6DE75BF229A8E3EFC
:1039900007BA76BF938E883EC58B77BFC07D823EC7
:1039A000F85378BFCCCF783E981279BF7F9A6C3E9F
:1039B0009DC779BF135C603E02737ABF0115543E08
:1039C000BE147BBFC2C5473ECDAC7BBFCF6E3B3E76
:1039D000283B7CBFA2102F3EC9BF7CBFB6AB223EA6
:1039E000AC3A7DBF8340163ECCAB7DBF86CF093E4F
:1039F00024137EBF73B2FA3DB0707EBF2EBCE13D92
:103A00006DC47EBF36BDC83D580E7FBF80B6AF3D8A
:103A10006D4E7FBF05A9963DAB847FBF742B7B3D68
:103A20000FB17FBF2FFB483D98D37FBF2CC3163DFE
:103A300043EC7FBFB00AC93C11FB7FBF900E493CED
:103A4000000080BF0000000011FB7FBF900E49BC4A
:103A500043EC7FBFB00AC9BC98D37FBF2CC316BD4F
:103A60000FB17FBF2FFB48BDAB847FBF742B7BBDE5
:103A70006D4E7FBF05A996BD580E7FBF80B6AFBD06
:103A80006DC47EBF36BDC8BDB0707EBF2EBCE1BD6B
:103A900024137EBF73B2FABDCCAB7DBF86CF09BE07
:103AA000AC3A7DBF834016BEC9BF7CBFB6AB22BE59
:103AB000283B7CBFA2102FBECDAC7BBFCF6E3BBEE0
:103AC000BE147BBFC2C547BE02737ABF011554BE88
:103AD0009DC779BF135C60BE981279BF7F9A6CBE98
:103AE000F85378BFCCCF78BEC58B77BFC07D82BE80
:103AF00007BA76BF938E88BEC6DE75BF229A8EBE89
:103B00000BFA74BF31A094BEDD0B74BF86A09ABEC1
:103B1000471473BFE59AA0BE521372BF128FA6BEA0
:103B2000080971BFD47CACBE73F56FBFEF63B2BE42
:103B30009ED86EBF2A44B8BE93B26DBF4A1DBEBEAA
:103B40005E836CBF15EFC3BE0C4B6BBF53B9C9BED0
:103B5000A7096ABFCA7BCFBE3CBF68BF4136D5BE8E
:103B6000D86B67BF80E8DABE880F66BF4F92E0BEB1
:103B700059AA64BF7533E6BE5A3C63BFBBCBEBBEEC
:103B800098C561BFEA5AF1BE214660BFCBE0F6BEE0
:103B900005BE5EBF275DFCBE532D5DBFE4E700BFE1
:103BA0001A945BBF3D9C03BF6AF259BF824B06BFAC
:103BB000534858BF9BF508BFE59556BF6B9A0BBF9E
:103BC00031DB54BFDA390EBF491853BFCDD310BF14
:103BD0003D4D51BF2A6813BF1F7A4FBFD9F615BF9D
:103BE000029F4DBFC07F18BFF8BB4BBFC6021BBFB3
:103BF00012D149BFD17F1DBF65DE47BFCBF61FBFC6
:103C000003E445BF996722BF00E243BF25D224BF2A
:103C100070D841BF563627BF67C73FBF159429BF2D
:103C2000F9AE3DBF4AEB2BBF3B8F3BBFDE3B2EBF08
:103C3000426839BFBB8530BF233A37BFC9C832BFDE
:103C4000F30435BFF30435BFC9C832BF233A37BFC9
:103C5000BB8530BF426839BFDE3B2EBF3B8F3BBFC9
:103C60004AEB2BBFF9AE3DBF159429BF67C73FBFD5
:103C7000563627BF70D841BF25D224BF00E243BFCC
:103C8000996722BF03E445BFCBF61FBF65DE47BF80
:103C9000D17F1DBF12D149BFC6021BBFF8BB4BBFAE
:103CA000C07F18BF029F4DBFD9F615BF1F7A4FBF07
:103CB0002A6813BF3D4D51BFCDD310BF491853BF24
:103CC000DA390EBF31DB54BF6B9A0BBFE59556BF97
:103CD0009BF508BF534858BF824B06BF6AF259BFD5
:103CE0003D9C03BF1A945BBFE4E700BF532D5DBF4B
:103CF000275DFCBE05BE5EBFCBE0F6BE214660BFC1
:103D0000EA5AF1BE98C561BFBBCBEBBE5A3C63BF5C
:103D10007533E6BE59AA64BF4F92E0BE880F66BFF6
:103D200080E8DABED86B67BF4136D5BE3CBF68BFFE
:103D3000CA7BCFBEA7096ABF53B9C9BE0C4B6BBFC4
:103D400015EFC3BE5E836CBF4A1DBEBE93B26DBF8E
:103D50002A44B8BE9ED86EBFEF63B2BE73F56FBF84
:103D6000D47CACBE080971BF128FA6BE521372BFBD
:103D7000E59AA0BE471473BF86A09ABEDD0B74BF40
:103D800031A094BE0BFA74BF229A8EBEC6DE75BFF8
:103D9000938E88BE07BA76BFC07D82BEC58B77BFC3
:103DA000CCCF78BEF85378BF7F9A6CBE981279BF9B
:103DB000135C60BE9DC779BF011554BE02737ABF04
:103DC000C2C547BEBE147BBFCF6E3BBECDAC7BBF72
:103DD000A2102FBE283B7CBFB6AB22BEC9BF7CBFA2
:103DE000834016BEAC3A7DBF86CF09BECCAB7DBF4B
:103DF00073B2FABD24137EBF2EBCE1BDB0707EBF8E
:103E000036BDC8BD6DC47EBF80B6AFBD580E7FBF86
:103E100005A996BD6D4E7FBF742B7BBDAB847FBF64
:103E20002FFB48BD0FB17FBF2CC316BD98D37FBFFA
:103E3000B00AC9BC43EC7FBF900E49BC11FB7FBFE9
:103E400000000080000080BF900E493C11FB7FBF46
:103E5000B00AC93C43EC7FBF2CC3163D98D37FBF4B
:103E60002FFB483D0FB17FBF742B7B3DAB847FBFE1
:103E700005A9963D6D4E7FBF80B6AF3D580E7FBF02
:103E800036BDC83D6DC47EBF2EBCE13DB0707EBF67
:103E900073B2FA3D24137EBF86CF093ECCAB7DBF03
:103EA0008340163EAC3A7DBFB6AB223EC9BF7CBF55
:103EB000A2102F3E283B7CBFCF6E3B3ECDAC7BBFDC
:103EC000C2C5473EBE147BBF0115543E02737ABF84
:103ED000135C603E9DC779BF7F9A6C3E981279BF94
:103EE000CCCF783EF85378BFC07D823EC58B77BF7C
:103EF000938E883E07BA76BF229A8E3EC6DE75BF85
:103F000031A0943E0BFA74BF86A09A3EDD0B74BFBD
:103F1000E59AA03E471473BF128FA63E521372BF9C
:103F2000D47CAC3E080971BFEF63B23E73F56FBF3E
:103F30002A44B83E9ED86EBF4A1DBE3E93B26DBFA6
:103F400015EFC33E5E836CBF53B9C93E0C4B6BBFCC
:103F5000CA7BCF3EA7096ABF4136D53E3CBF68BF8A
:103F600080E8DA3ED86B67BF4F92E03E880F66BFAD
:103F70007533E63E59AA64BFBBCBEB3E5A3C63BFE8
:103F8000EA5AF13E98C561BFCBE0F63E214660BFDC
:103F9000275DFC3E05BE5EBFE4E7003F532D5DBFDD
:103FA0003D9C033F1A945BBF824B063F6AF259BFA8
:103FB0009BF5083F534858BF6B9A0B3FE59556BF9A
:103FC000DA390E3F31DB54BFCDD3103F491853BF10
:103FD0002A68133F3D4D51BFD9F6153F1F7A4FBF99
:103FE000C07F183F029F4DBFC6021B3FF8BB4BBFAF
:103FF000D17F1D3F12D149BFCBF61F3F65DE47BFC2
:104000009967223F03E445BF25D2243F00E243BF26
:104010005636273F70D841BF1594293F67C73FBF29
:104020004AEB2B3FF9AE3DBFDE3B2E3F3B8F3BBF04
:10403000BB85303F426839BFC9C8323F233A37BFDA
:10404000F304353FF30435BF233A373FC9C832BFC5
:104050004268393FBB8530BF3B8F3B3FDE3B2EBFC5
:10406000F9AE3D3F4AEB2BBF67C73F3F159429BFD1
:1040700070D8413F563627BF00E2433F25D224BFC8
:1040800003E4453F996722BF65DE473FCBF61FBF7C
:1040900012D1493FD17F1DBFF8BB4B3FC6021BBFAA
:1040A000029F4D3FC07F18BF1F7A4F3FD9F615BF03
:1040B0003D4D513F2A6813BF4918533FCDD310BF20
:1040C00031DB543FDA390EBFE595563F6B9A0BBF93
:1040D0005348583F9BF508BF6AF2593F824B06BFD1
:1040E0001A945B3F3D9C03BF532D5D3FE4E700BF47
:1040F00005BE5E3F275DFCBE2146603FCBE0F6BEBD
:1041000098C5613FEA5AF1BE5A3C633FBBCBEBBE58
:1041100059AA643F7533E6BE880F663F4F92E0BEF2
:10412000D86B673F80E8DABE3CBF683F4136D5BEFA
:10413000A7096A3FCA7BCFBE0C4B6B3F53B9C9BEC0
:104140005E836C3F15EFC3BE93B26D3F4A1DBEBE8A
:104150009ED86E3F2A44B8BE73F56F3FEF63B2BE80
:104160000809713FD47CACBE5213723F128FA6BEB9
:104170004714733FE59AA0BEDD0B743F86A09ABE3C
:104180000BFA743F31A094BEC6DE753F229A8EBEF4
:1041900007BA763F938E88BEC58B773FC07D82BEBF
:1041A000F853783FCCCF78BE9812793F7F9A6CBE97
:1041B0009DC7793F135C60BE02737A3F011554BE00
:1041C000BE147B3FC2C547BECDAC7B3FCF6E3BBE6E
:1041D000283B7C3FA2102FBEC9BF7C3FB6AB22BE9E
:1041E000AC3A7D3F834016BECCAB7D3F86CF09BE47
:1041F00024137E3F73B2FABDB0707E3F2EBCE1BD8A
:104200006DC47E3F36BDC8BD580E7F3F80B6AFBD82
:104210006D4E7F3F05A996BDAB847F3F742B7BBD60
:104220000FB17F3F2FFB48BD98D37F3F2CC316BDF6
:1042300043EC7F3FB00AC9BC11FB7F3F900E49BCE5
:104240000000803F00000000C4FE7F3F890FC93B93
:1042500011FB7F3F900E493CE6F47F3FB6C9963C88
:1042600043EC7F3FB00AC93C29E17F3FB949FB3CA1
:1042700098D37F3F2CC3163D8FC37F3F07E02F3D70
:104280000FB17F3F2FFB483D189C7F3F6814623D74
:10429000AB847F3F742B7B3DC76A7F3F0A208A3DFA
:1042A0006D4E7F3F05A9963D9D2F7F3F8C30A33DEE
:1042B000580E7F3F80B6AF3D9DEA7E3FC33ABC3D7E
:1042C0006DC47E3F36BDC83DC99B7E3FB93DD53DDF
:1042D000B0707E3F2EBCE13D23437E3F7638EE3DFD
:1042E00024137E3F73B2FA3DB1E07D3F0295033E59
:1042F000CCAB7D3F86CF093E74747D3FB708103E3E
:10430000AC3A7D3F8340163E73FE7C3FDE761C3E1A
:10431000C9BF7C3FB6AB223EB07E7C3FFCDE283E70
:10432000283B7C3FA2102F3E31F57B3F9840353E25
:10433000CDAC7B3FCF6E3B3EFC617B3F379B413E2C
:10434000BE147B3FC2C5473E16C57A3F60EE4D3E68
:1043500002737A3F0115543E841E7A3F97395A3EC4
:104360009DC7793F135C603E4E6E793F667C663E2A
:104370009812793F7F9A6C3E7BB4783F51B6723E7B
:10438000F853783FCCCF783E10F1773FE1E67E3EA0
:10439000C58B773FC07D823E1724773FCE86853E12
:1043A00007BA763F938E883E974D763F07958B3EB2
:1043B000C6DE753F229A8E3E976D753FDD9D913E1C
:1043C0000BFA743F31A0943E2284743F17A1973EAC
:1043D000DD0B743F86A09A3E3F91733F789E9D3ED1
:1043E0004714733FE59AA03EF894723FC595A33EEB
:1043F0005213723F128FA63E578F713FC486A93E5B
:104400000809713FD47CAC3E6680703F3A71AF3E84
:1044100073F56F3FEF63B23E30686F3FEC54B53ECB
:104420009ED86E3F2A44B83EBE466E3FA031BB3E8A
:1044300093B26D3F4A1DBE3E1D1C6D3F1E07C13E1F
:104440005E836C3F15EFC33E58E86B3F29D5C63EEF
:104450000C4B6B3F53B9C93E7BAB6A3F8B9BCC3E49
:10446000A7096A3FCA7BCF3E9165693F095AD23E90
:104470003CBF683F4136D53EA816683F6B10D83E1A
:10448000D86B673F80E8DA3ECCBE663F79BEDD3E42
:10449000880F663F4F92E03E0B5E653FFA63E33E56
:1044A00059AA643F7533E63E73F4633FB700E93EB3
:1044B0005A3C633FBBCBEB3E1082623F7994EE3EA9
:1044C00098C5613FEA5AF13EF206613F071FF43E8C
:1044D0002146603FCBE0F63E27835F3F2DA0F93EAB
:1044E00005BE5E3F275DFC3EBEF65D3FB217FF3E58
:1044F000532D5D3FE4E7003FC7615C3FB142023F9F
:104500001A945B3F3D9C033F50C45A3F84F4043FE0
:104510006AF2593F824B063F6A1E593F36A1073F58
:104520005348583F9BF5083F2670573FAD480A3F18
:10453000E595563F6B9A0B3F93B9553FD0EA0C3F38
:1045400031DB543FDA390E3FC3FA533F84870F3FC4
:104550004918533FCDD3103FC633523FB01E123FD0
:104560003D4D513F2A68133FAF64503F39B0143F6F
:104570001F7A4F3FD9F6153F908D4E3F073C173FAE
:10458000029F4D3FC07F183F79AE4C3F00C2193F9C
:10459000F8BB4B3FC6021B3F7FC74A3F0C421C3F44
:1045A00012D1493FD17F1D3FB3D8483F12BC1E3FB7
:1045B00065DE473FCBF61F3F2AE2463FF92F213FFA
:1045C00003E4453F9967223FF5E3443FA99D233F1C
:1045D00000E2433F25D2243F29DE423F0A05263F21
:1045E00070D8413F5636273FDAD0403F0566283F16
:1045F00067C73F3F1594293F1BBC3E3F82C02A3FFF
:10460000F9AE3D3F4AEB2B3F03A03C3F69142D3FE1
:104610003B8F3B3FDE3B2E3FA47C3A3FA5612F3FC3
:104620004268393FBB85303F1652383F1DA8313FA5
:10463000233A373FC9C8323F6C20363FBCE7333F8F
:10464000F304353FF304353FBCE7333F6C20363F7E
:10465000C9C8323F233A373F1DA8313F1652383F71
:10466000BB85303F4268393FA5612F3FA47C3A3F6C
:10467000DE3B2E3F3B8F3B3F69142D3F03A03C3F69
:104680004AEB2B3FF9AE3D3F82C02A3F1BBC3E3F69
:104690001594293F67C73F3F0566283FDAD0403F62
:1046A0005636273F70D8413F0A05263F29DE423F54
:1046B00025D2243F00E2433FA99D233FF5E3443F39
:1046C0009967223F03E4453FF92F213F2AE2463F05
:1046D000CBF61F3F65DE473F12BC1E3FB3D8483FB5
:1046E000D17F1D3F12D1493F0C421C3F7FC74A3F3B
:1046F000C6021B3FF8BB4B3F00C2193F79AE4C3F8F
:10470000C07F183F029F4D3F073C173F908D4E3FA3
:10471000D9F6153F1F7A4F3F39B0143FAF64503F71
:104720002A68133F3D4D513FB01E123FC633523FE2
:10473000CDD3103F4918533F84870F3FC3FA533FEF
:10474000DA390E3F31DB543FD0EA0C3F93B9553F85
:104750006B9A0B3FE595563FAD480A3F2670573F91
:104760009BF5083F5348583F36A1073F6A1E593F03
:10477000824B063F6AF2593F84F4043F50C45A3FCB
:104780003D9C033F1A945B3FB142023FC7615C3FCF
:10479000E4E7003F532D5D3FB217FF3EBEF65D3F9D
:1047A000275DFC3E05BE5E3F2DA0F93E27835F3F9F
:1047B000CBE0F63E2146603F071FF43EF206613F24
:1047C000EA5AF13E98C5613F7994EE3E1082623F0D
:1047D000BBCBEB3E5A3C633FB700E93E73F4633F0B
:1047E0007533E63E59AA643FFA63E33E0B5E653FCC
:1047F0004F92E03E880F663F79BEDD3ECCBE663FFD
:1048000080E8DA3ED86B673F6B10D83EA816683F49
:104810004136D53E3CBF683F095AD23E9165693F5B
:10482000CA7BCF3EA7096A3F8B9BCC3E7BAB6A3FDE
:1048300053B9C93E0C4B6B3F29D5C63E58E86B3F78
:1048400015EFC33E5E836C3F1E07C13E1D1C6D3FCE
:104850004A1DBE3E93B26D3FA031BB3EBE466E3F89
:104860002A44B83E9ED86E3FEC54B53E30686F3F48
:10487000EF63B23E73F56F3F3A71AF3E6680703FB3
:10488000D47CAC3E0809713FC486A93E578F713F66
:10489000128FA63E5213723FC595A33EF894723F05
:1048A000E59AA03E4714733F789E9D3E3F91733F2B
:1048B00086A09A3EDD0B743F17A1973E2284743F79
:1048C00031A0943E0BFA743FDD9D913E976D753F8C
:1048D000229A8E3EC6DE753F07958B3E974D763FFA
:1048E000938E883E07BA763FCE86853E1724773F63
:1048F000C07D823EC58B773FE1E67E3E10F1773F7B
:10490000CCCF783EF853783F51B6723E7BB4783FB7
:104910007F9A6C3E9812793F667C663E4E6E793F78
:10492000135C603E9DC7793F97395A3E841E7A3F9B
:104930000115543E02737A3F60EE4D3E16C57A3F34
:10494000C2C5473EBE147B3F379B413EFC617B3F67
:10495000CF6E3B3ECDAC7B3F9840353E31F57B3F43
:10496000A2102F3E283B7C3FFCDE283EB07E7C3FE1
:10497000B6AB223EC9BF7C3FDE761C3E73FE7C3F59
:104980008340163EAC3A7D3FB708103E74747D3FBD
:1049900086CF093ECCAB7D3F0295033EB1E07D3F23
:1049A00073B2FA3D24137E3F7638EE3D23437E3FBB
:1049B0002EBCE13DB0707E3FB93DD53DC99B7E3FE9
:1049C00036BDC83D6DC47E3FC33ABC3D9DEA7E3FC7
:1049D00080B6AF3D580E7F3F8C30A33D9D2F7F3F6B
:1049E00005A9963D6D4E7F3F0A208A3DC76A7F3FED
:1049F000742B7B3DAB847F3F6814623D189C7F3FE6
:104A00002FFB483D0FB17F3F07E02F3D8FC37F3F16
:104A10002CC3163D98D37F3FB949FB3C29E17F3F2A
:104A2000B00AC93C43EC7F3FB6C9963CE6F47F3FF1
:104A3000900E493C11FB7F3F890FC93BC4FE7F3F6D
:104A4000000000000000803F890FC9BBC4FE7F3F0B
:104A5000900E49BC11FB7F3FB6C996BCE6F47F3F80
:104A6000B00AC9BC43EC7F3FB949FBBC29E17F3F99
:104A70002CC316BD98D37F3F07E02FBD8FC37F3F68
:104A80002FFB48BD0FB17F3F681462BD189C7F3F6C
:104A9000742B7BBDAB847F3F0A208ABDC76A7F3FF2
:104AA00005A996BD6D4E7F3F8C30A3BD9D2F7F3FE6
:104AB00080B6AFBD580E7F3FC33ABCBD9DEA7E3F76
:104AC00036BDC8BD6DC47E3FB93DD5BDC99B7E3FD7
:104AD0002EBCE1BDB0707E3F7638EEBD23437E3FF5
:104AE00073B2FABD24137E3F029503BEB1E07D3F51
:104AF00086CF09BECCAB7D3FB70810BE74747D3F36
:104B0000834016BEAC3A7D3FDE761CBE73FE7C3F12
:104B1000B6AB22BEC9BF7C3FFCDE28BEB07E7C3F68
:104B2000A2102FBE283B7C3F984035BE31F57B3F1D
:104B3000CF6E3BBECDAC7B3F379B41BEFC617B3F24
:104B4000C2C547BEBE147B3F60EE4DBE16C57A3F60
:104B5000011554BE02737A3F97395ABE841E7A3FBC
:104B6000135C60BE9DC7793F667C66BE4E6E793F22
:104B70007F9A6CBE9812793F51B672BE7BB4783F73
:104B8000CCCF78BEF853783FE1E67EBE10F1773F98
:104B9000C07D82BEC58B773FCE8685BE1724773F0A
:104BA000938E88BE07BA763F07958BBE974D763FAA
:104BB000229A8EBEC6DE753FDD9D91BE976D753F14
:104BC00031A094BE0BFA743F17A197BE2284743FA4
:104BD00086A09ABEDD0B743F789E9DBE3F91733FC9
:104BE000E59AA0BE4714733FC595A3BEF894723FE3
:104BF000128FA6BE5213723FC486A9BE578F713F53
:104C0000D47CACBE0809713F3A71AFBE6680703F7C
:104C1000EF63B2BE73F56F3FEC54B5BE30686F3FC3
:104C20002A44B8BE9ED86E3FA031BBBEBE466E3F82
:104C30004A1DBEBE93B26D3F1E07C1BE1D1C6D3F17
:104C400015EFC3BE5E836C3F29D5C6BE58E86B3FE7
:104C500053B9C9BE0C4B6B3F8B9BCCBE7BAB6A3F41
:104C6000CA7BCFBEA7096A3F095AD2BE9165693F88
:104C70004136D5BE3CBF683F6B10D8BEA816683F12
:104C800080E8DABED86B673F79BEDDBECCBE663F3A
:104C90004F92E0BE880F663FFA63E3BE0B5E653F4E
:104CA0007533E6BE59AA643FB700E9BE73F4633FAB
:104CB000BBCBEBBE5A3C633F7994EEBE1082623FA1
:104CC000EA5AF1BE98C5613F071FF4BEF206613F84
:104CD000CBE0F6BE2146603F2DA0F9BE27835F3FA3
:104CE000275DFCBE05BE5E3FB217FFBEBEF65D3F50
:104CF000E4E700BF532D5D3FB14202BFC7615C3F97
:104D00003D9C03BF1A945B3F84F404BF50C45A3FD8
:104D1000824B06BF6AF2593F36A107BF6A1E593F50
:104D20009BF508BF5348583FAD480ABF2670573F10
:104D30006B9A0BBFE595563FD0EA0CBF93B9553F30
:104D4000DA390EBF31DB543F84870FBFC3FA533FBC
:104D5000CDD310BF4918533FB01E12BFC633523FC8
:104D60002A6813BF3D4D513F39B014BFAF64503F67
:104D7000D9F615BF1F7A4F3F073C17BF908D4E3FA6
:104D8000C07F18BF029F4D3F00C219BF79AE4C3F94
:104D9000C6021BBFF8BB4B3F0C421CBF7FC74A3F3C
:104DA000D17F1DBF12D1493F12BC1EBFB3D8483FAF
:104DB000CBF61FBF65DE473FF92F21BF2AE2463FF2
:104DC000996722BF03E4453FA99D23BFF5E3443F14
:104DD00025D224BF00E2433F0A0526BF29DE423F19
:104DE000563627BF70D8413F056628BFDAD0403F0E
:104DF000159429BF67C73F3F82C02ABF1BBC3E3FF7
:104E00004AEB2BBFF9AE3D3F69142DBF03A03C3FD9
:104E1000DE3B2EBF3B8F3B3FA5612FBFA47C3A3FBB
:104E2000BB8530BF4268393F1DA831BF1652383F9D
:104E3000C9C832BF233A373FBCE733BF6C20363F87
:104E4000F30435BFF304353F6C2036BFBCE7333F76
:104E5000233A37BFC9C8323F165238BF1DA8313F69
:104E6000426839BFBB85303FA47C3ABFA5612F3F64
:104E70003B8F3BBFDE3B2E3F03A03CBF69142D3F61
:104E8000F9AE3DBF4AEB2B3F1BBC3EBF82C02A3F61
:104E900067C73FBF1594293FDAD040BF0566283F5A
:104EA00070D841BF5636273F29DE42BF0A05263F4C
:104EB00000E243BF25D2243FF5E344BFA99D233F31
:104EC00003E445BF9967223F2AE246BFF92F213FFD
:104ED00065DE47BFCBF61F3FB3D848BF12BC1E3FAD
:104EE00012D149BFD17F1D3F7FC74ABF0C421C3F33
:104EF000F8BB4BBFC6021B3F79AE4CBF00C2193F87
:104F0000029F4DBFC07F183F908D4EBF073C173F9B
:104F10001F7A4FBFD9F6153FAF6450BF39B0143F69
:104F20003D4D51BF2A68133FC63352BFB01E123FDA
:104F3000491853BFCDD3103FC3FA53BF84870F3FE7
:104F400031DB54BFDA390E3F93B955BFD0EA0C3F7D
:104F5000E59556BF6B9A0B3F267057BFAD480A3F89
:104F6000534858BF9BF5083F6A1E59BF36A1073FFB
:104F70006AF259BF824B063F50C45ABF84F4043FC3
:104F80001A945BBF3D9C033FC7615CBFB142023FC7
:104F9000532D5DBFE4E7003FBEF65DBFB217FF3E95
:104FA00005BE5EBF275DFC3E27835FBF2DA0F93E97
:104FB000214660BFCBE0F63EF20661BF071FF43E1C
:104FC00098C561BFEA5AF13E108262BF7994EE3E05
:104FD0005A3C63BFBBCBEB3E73F463BFB700E93E03
:104FE00059AA64BF7533E63E0B5E65BFFA63E33EC4
:104FF000880F66BF4F92E03ECCBE66BF79BEDD3EF5
:10500000D86B67BF80E8DA3EA81668BF6B10D83E41
:105010003CBF68BF4136D53E916569BF095AD23E53
:10502000A7096ABFCA7BCF3E7BAB6ABF8B9BCC3ED6
:105030000C4B6BBF53B9C93E58E86BBF29D5C63E70
:105040005E836CBF15EFC33E1D1C6DBF1E07C13EC6
:1050500093B26DBF4A1DBE3EBE466EBFA031BB3E81
:105060009ED86EBF2A44B83E30686FBFEC54B53E40
:1050700073F56FBFEF63B23E668070BF3A71AF3EAB
:10508000080971BFD47CAC3E578F71BFC486A93E5E
:10509000521372BF128FA63EF89472BFC595A33EFD
:1050A000471473BFE59AA03E3F9173BF789E9D3E23
:1050B000DD0B74BF86A09A3E228474BF17A1973E71
:1050C0000BFA74BF31A0943E976D75BFDD9D913E84
:1050D000C6DE75BF229A8E3E974D76BF07958B3EF2
:1050E00007BA76BF938E883E172477BFCE86853E5B
:1050F000C58B77BFC07D823E10F177BFE1E67E3E73
:10510000F85378BFCCCF783E7BB478BF51B6723EAF
:10511000981279BF7F9A6C3E4E6E79BF667C663E70
:105120009DC779BF135C603E841E7ABF97395A3E93
:1051300002737ABF0115543E16C57ABF60EE4D3E2C
:10514000BE147BBFC2C5473EFC617BBF379B413E5F
:10515000CDAC7BBFCF6E3B3E31F57BBF9840353E3B
:10516000283B7CBFA2102F3EB07E7CBFFCDE283ED9
:10517000C9BF7CBFB6AB223E73FE7CBFDE761C3E51
:10518000AC3A7DBF8340163E74747DBFB708103EB5
:10519000CCAB7DBF86CF093EB1E07DBF0295033E1B
:1051A00024137EBF73B2FA3D23437EBF7638EE3DB3
:1051B000B0707EBF2EBCE13DC99B7EBFB93DD53DE1
:1051C0006DC47EBF36BDC83D9DEA7EBFC33ABC3DBF
:1051D000580E7FBF80B6AF3D9D2F7FBF8C30A33D63
:1051E0006D4E7FBF05A9963DC76A7FBF0A208A3DE5
:1051F000AB847FBF742B7B3D189C7FBF6814623DDE
:105200000FB17FBF2FFB483D8FC37FBF07E02F3D0E
:1052100098D37FBF2CC3163D29E17FBFB949FB3C22
:1052200043EC7FBFB00AC93CE6F47FBFB6C9963CE9
:1052300011FB7FBF900E493CC4FE7FBF890FC93B65
:10524000000080BF00000000C4FE7FBF890FC9BB03
:1052500011FB7FBF900E49BCE6F47FBFB6C996BC78
:1052600043EC7FBFB00AC9BC29E17FBFB949FBBC91
:1052700098D37FBF2CC316BD8FC37FBF07E02FBD60
:105280000FB17FBF2FFB48BD189C7FBF681462BD64
:10529000AB847FBF742B7BBDC76A7FBF0A208ABDEA
:1052A0006D4E7FBF05A996BD9D2F7FBF8C30A3BDDE
:1052B000580E7FBF80B6AFBD9DEA7EBFC33ABCBD6E
:1052C0006DC47EBF36BDC8BDC99B7EBFB93DD5BDCF
:1052D000B0707EBF2EBCE1BD23437EBF7638EEBDED
:1052E00024137EBF73B2FABDB1E07DBF029503BE49
:1052F000CCAB7DBF86CF09BE74747DBFB70810BE2E
:10530000AC3A7DBF834016BE73FE7CBFDE761CBE0A
:10531000C9BF7CBFB6AB22BEB07E7CBFFCDE28BE60
:10532000283B7CBFA2102FBE31F57BBF984035BE15
:10533000CDAC7BBFCF6E3BBEFC617BBF379B41BE1C
:10534000BE147BBFC2C547BE16C57ABF60EE4DBE58
:1053500002737ABF011554BE841E7ABF97395ABEB4
:105360009DC779BF135C60BE4E6E79BF667C66BE1A
:10537000981279BF7F9A6CBE7BB478BF51B672BE6B
:10538000F85378BFCCCF78BE10F177BFE1E67EBE90
:10539000C58B77BFC07D82BE172477BFCE8685BE02
:1053A00007BA76BF938E88BE974D76BF07958BBEA2
:1053B000C6DE75BF229A8EBE976D75BFDD9D91BE0C
:1053C0000BFA74BF31A094BE228474BF17A197BE9C
:1053D000DD0B74BF86A09ABE3F9173BF789E9DBEC1
:1053E000471473BFE59AA0BEF89472BFC595A3BEDB
:1053F000521372BF128FA6BE578F71BFC486A9BE4B
:10540000080971BFD47CACBE668070BF3A71AFBE74
:1054100073F56FBFEF63B2BE30686FBFEC54B5BEBB
:105420009ED86EBF2A44B8BEBE466EBFA031BBBE7A
:1054300093B26DBF4A1DBEBE1D1C6DBF1E07C1BE0F
:105440005E836CBF15EFC3BE58E86BBF29D5C6BEDF
:105450000C4B6BBF53B9C9BE7BAB6ABF8B9BCCBE39
:10546000A7096ABFCA7BCFBE916569BF095AD2BE80
:105470003CBF68BF4136D5BEA81668BF6B10D8BE0A
:10548000D86B67BF80E8DABECCBE66BF79BEDDBE32
:10549000880F66BF4F92E0BE0B5E65BFFA63E3BE46
:1054A00059AA64BF7533E6BE73F463BFB700E9BEA3
:1054B0005A3C63BFBBCBEBBE108262BF7994EEBE99
:1054C00098C561BFEA5AF1BEF20661BF071FF4BE7C
:1054D000214660BFCBE0F6BE27835FBF2DA0F9BE9B
:1054E00005BE5EBF275DFCBEBEF65DBFB217FFBE48
:1054F000532D5DBFE4E700BFC7615CBFB14202BF8F
:105500001A945BBF3D9C03BF50C45ABF84F404BFD0
:105510006AF259BF824B06BF6A1E59BF36A107BF48
:10552000534858BF9BF508BF267057BFAD480ABF08
:10553000E59556BF6B9A0BBF93B955BFD0EA0CBF28
:1055400031DB54BFDA390EBFC3FA53BF84870FBFB4
:10555000491853BFCDD310BFC63352BFB01E12BFC0
:105560003D4D51BF2A6813BFAF6450BF39B014BF5F
:105570001F7A4FBFD9F615BF908D4EBF073C17BF9E
:10558000029F4DBFC07F18BF79AE4CBF00C219BF8C
:10559000F8BB4BBFC6021BBF7FC74ABF0C421CBF34
:1055A00012D149BFD17F1DBFB3D848BF12BC1EBFA7
:1055B00065DE47BFCBF61FBF2AE246BFF92F21BFEA
:1055C00003E445BF996722BFF5E344BFA99D23BF0C
:1055D00000E243BF25D224BF29DE42BF0A0526BF11
:1055E00070D841BF563627BFDAD040BF056628BF06
:1055F00067C73FBF159429BF1BBC3EBF82C02ABFEF
:10560000F9AE3DBF4AEB2BBF03A03CBF69142DBFD1
:105610003B8F3BBFDE3B2EBFA47C3ABFA5612FBFB3
:10562000426839BFBB8530BF165238BF1DA831BF95
:10563000233A37BFC9C832BF6C2036BFBCE733BF7F
:10564000F30435BFF30435BFBCE733BF6C2036BF6E
:10565000C9C832BF233A37BF1DA831BF165238BF61
:10566000BB8530BF426839BFA5612FBFA47C3ABF5C
:10567000DE3B2EBF3B8F3BBF69142DBF03A03CBF59
:105680004AEB2BBFF9AE3DBF82C02ABF1BBC3EBF59
:10569000159429BF67C73FBF056628BFDAD040BF52
:1056A000563627BF70D841BF0A0526BF29DE42BF44
:1056B00025D224BF00E243BFA99D23BFF5E344BF29
:1056C000996722BF03E445BFF92F21BF2AE246BFF5
:1056D000CBF61FBF65DE47BF12BC1EBFB3D848BFA5
:1056E000D17F1DBF12D149BF0C421CBF7FC74ABF2B
:1056F000C6021BBFF8BB4BBF00C219BF79AE4CBF7F
:10570000C07F18BF029F4DBF073C17BF908D4EBF93
:10571000D9F615BF1F7A4FBF39B014BFAF6450BF61
:105720002A6813BF3D4D51BFB01E12BFC63352BFD2
:10573000CDD310BF491853BF84870FBFC3FA53BFDF
:10574000DA390EBF31DB54BFD0EA0CBF93B955BF75
:105750006B9A0BBFE59556BFAD480ABF267057BF81
:105760009BF508BF534858BF36A107BF6A1E59BFF3
:10577000824B06BF6AF259BF84F404BF50C45ABFBB
:105780003D9C03BF1A945BBFB14202BFC7615CBFBF
:10579000E4E700BF532D5DBFB217FFBEBEF65DBF8D
:1057A000275DFCBE05BE5EBF2DA0F9BE27835FBF8F
:1057B000CBE0F6BE214660BF071FF4BEF20661BF14
:1057C000EA5AF1BE98C561BF7994EEBE108262BFFD
:1057D000BBCBEBBE5A3C63BFB700E9BE73F463BFFB
:1057E0007533E6BE59AA64BFFA63E3BE0B5E65BFBC
:1057F0004F92E0BE880F66BF79BEDDBECCBE66BFED
:1058000080E8DABED86B67BF6B10D8BEA81668BF39
:105810004136D5BE3CBF68BF095AD2BE916569BF4B
:10582000CA7BCFBEA7096ABF8B9BCCBE7BAB6ABFCE
:1058300053B9C9BE0C4B6BBF29D5C6BE58E86BBF68
:1058400015EFC3BE5E836CBF1E07C1BE1D1C6DBFBE
:105850004A1DBEBE93B26DBFA031BBBEBE466EBF79
:105860002A44B8BE9ED86EBFEC54B5BE30686FBF38
:10587000EF63B2BE73F56FBF3A71AFBE668070BFA3
:10588000D47CACBE080971BFC486A9BE578F71BF56
:10589000128FA6BE521372BFC595A3BEF89472BFF5
:1058A000E59AA0BE471473BF789E9DBE3F9173BF1B
:1058B00086A09ABEDD0B74BF17A197BE228474BF69
:1058C00031A094BE0BFA74BFDD9D91BE976D75BF7C
:1058D000229A8EBEC6DE75BF07958BBE974D76BFEA
:1058E000938E88BE07BA76BFCE8685BE172477BF53
:1058F000C07D82BEC58B77BFE1E67EBE10F177BF6B
:10590000CCCF78BEF85378BF51B672BE7BB478BFA7
:105910007F9A6CBE981279BF667C66BE4E6E79BF68
:10592000135C60BE9DC779BF97395ABE841E7ABF8B
:10593000011554BE02737ABF60EE4DBE16C57ABF24
:10594000C2C547BEBE147BBF379B41BEFC617BBF57
:10595000CF6E3BBECDAC7BBF984035BE31F57BBF33
:10596000A2102FBE283B7CBFFCDE28BEB07E7CBFD1
:10597000B6AB22BEC9BF7CBFDE761CBE73FE7CBF49
:10598000834016BEAC3A7DBFB70810BE74747DBFAD
:1059900086CF09BECCAB7DBF029503BEB1E07DBF13
:1059A00073B2FABD24137EBF7638EEBD23437EBFAB
:1059B0002EBCE1BDB0707EBFB93DD5BDC99B7EBFD9
:1059C00036BDC8BD6DC47EBFC33ABCBD9DEA7EBFB7
:1059D00080B6AFBD580E7FBF8C30A3BD9D2F7FBF5B
:1059E00005A996BD6D4E7FBF0A208ABDC76A7FBFDD
:1059F000742B7BBDAB847FBF681462BD189C7FBFD6
:105A00002FFB48BD0FB17FBF07E02FBD8FC37FBF06
:105A10002CC316BD98D37FBFB949FBBC29E17FBF1A
:105A2000B00AC9BC43EC7FBFB6C996BCE6F47FBFE1
:105A3000900E49BC11FB7FBF890FC9BBC4FE7FBF5D
:105A400000000080000080BF890FC93BC4FE7FBFFB
:105A5000900E493C11FB7FBFB6C9963CE6F47FBF70
:105A6000B00AC93C43EC7FBFB949FB3C29E17FBF89
:105A70002CC3163D98D37FBF07E02F3D8FC37FBF58
:105A80002FFB483D0FB17FBF6814623D189C7FBF5C
:105A9000742B7B3DAB847FBF0A208A3DC76A7FBFE2
:105AA00005A9963D6D4E7FBF8C30A33D9D2F7FBFD6
:105AB00080B6AF3D580E7FBFC33ABC3D9DEA7EBF66
:105AC00036BDC83D6DC47EBFB93DD53DC99B7EBFC7
:105AD0002EBCE13DB0707EBF7638EE3D23437EBFE5
